Component: ARM Compiler 5.06 update 6 (build 750) Tool: armlink [4d35ed]

==============================================================================

Section Cross References

    startup_stm32f767xx.o(RESET) refers to startup_stm32f767xx.o(STACK) for __initial_sp
    startup_stm32f767xx.o(RESET) refers to startup_stm32f767xx.o(.text) for Reset_Handler
    startup_stm32f767xx.o(RESET) refers to stm32f7xx_it.o(i.NMI_Handler) for NMI_Handler
    startup_stm32f767xx.o(RESET) refers to stm32f7xx_it.o(i.HardFault_Handler) for HardFault_Handler
    startup_stm32f767xx.o(RESET) refers to stm32f7xx_it.o(i.MemManage_Handler) for MemManage_Handler
    startup_stm32f767xx.o(RESET) refers to stm32f7xx_it.o(i.BusFault_Handler) for BusFault_Handler
    startup_stm32f767xx.o(RESET) refers to stm32f7xx_it.o(i.UsageFault_Handler) for UsageFault_Handler
    startup_stm32f767xx.o(RESET) refers to stm32f7xx_it.o(i.SVC_Handler) for SVC_Handler
    startup_stm32f767xx.o(RESET) refers to stm32f7xx_it.o(i.DebugMon_Handler) for DebugMon_Handler
    startup_stm32f767xx.o(RESET) refers to stm32f7xx_it.o(i.PendSV_Handler) for PendSV_Handler
    startup_stm32f767xx.o(RESET) refers to stm32f7xx_it.o(i.SysTick_Handler) for SysTick_Handler
    startup_stm32f767xx.o(RESET) refers to stm32f7xx_it.o(i.EXTI0_IRQHandler) for EXTI0_IRQHandler
    startup_stm32f767xx.o(RESET) refers to stm32f7xx_it.o(i.EXTI1_IRQHandler) for EXTI1_IRQHandler
    startup_stm32f767xx.o(.text) refers to system_stm32f7xx.o(i.SystemInit) for SystemInit
    startup_stm32f767xx.o(.text) refers to entry.o(.ARM.Collect$$$$00000000) for __main
    main.o(i.MX_ETH_Init) refers to stm32f7xx_hal_eth.o(i.HAL_ETH_Init) for HAL_ETH_Init
    main.o(i.MX_ETH_Init) refers to main.o(.bss) for .bss
    main.o(i.MX_GPIO_Init) refers to memseta.o(.text) for __aeabi_memclr4
==============================================================================

Removing Unused input sections from the image.

    Removing main.o(.rev16_text), (4 bytes).
    Removing main.o(.revsh_text), (4 bytes).
    Removing main.o(.rrx_text), (6 bytes).
    Removing main.o(i.Error_Handler), (2 bytes).
    Removing main.o(.data), (1 bytes).
    Removing main.o(.data), (4 bytes).
    Removing stm32f7xx_it.o(.rev16_text), (4 bytes).
    Removing stm32f7xx_it.o(.revsh_text), (4 bytes).
    Removing stm32f7xx_it.o(.rrx_text), (6 bytes).
    Removing stm32f7xx_hal_msp.o(.rev16_text), (4 bytes).
    Removing stm32f7xx_hal_msp.o(.revsh_text), (4 bytes).
    Removing stm32f7xx_hal_msp.o(.rrx_text), (6 bytes).
    Removing stm32f7xx_hal_msp.o(i.HAL_ETH_MspDeInit), (104 bytes).
    Removing stm32f7xx_hal_msp.o(i.HAL_PCD_MspDeInit), (40 bytes).
    Removing stm32f7xx_hal_msp.o(i.HAL_SPI_MspDeInit), (60 bytes).
    Removing stm32f7xx_hal_msp.o(i.HAL_UART_MspDeInit), (44 bytes).
    Removing stm32f7xx_hal_cortex.o(.rev16_text), (4 bytes).
    Removing stm32f7xx_hal_cortex.o(.revsh_text), (4 bytes).
==============================================================================

Image Symbol Table

    Local Symbols

    Symbol Name                              Value     Ov Type        Size  Object(Section)

    ../Drivers/STM32F7xx_HAL_Driver/Src/stm32f7xx_hal.c 0x00000000   Number         0  stm32f7xx_hal.o ABSOLUTE
    ../Drivers/STM32F7xx_HAL_Driver/Src/stm32f7xx_hal_cortex.c 0x00000000   Number         0  stm32f7xx_hal_cortex.o ABSOLUTE
    ../Drivers/STM32F7xx_HAL_Driver/Src/stm32f7xx_hal_dma.c 0x00000000   Number         0  stm32f7xx_hal_dma.o ABSOLUTE
    ../Drivers/STM32F7xx_HAL_Driver/Src/stm32f7xx_hal_dma_ex.c 0x00000000   Number         0  stm32f7xx_hal_dma_ex.o ABSOLUTE
    ../Drivers/STM32F7xx_HAL_Driver/Src/stm32f7xx_hal_eth.c 0x00000000   Number         0  stm32f7xx_hal_eth.o ABSOLUTE
    ../Drivers/STM32F7xx_HAL_Driver/Src/stm32f7xx_hal_flash.c 0x00000000   Number         0  stm32f7xx_hal_flash.o ABSOLUTE
    ../Drivers/STM32F7xx_HAL_Driver/Src/stm32f7xx_hal_flash_ex.c 0x00000000   Number         0  stm32f7xx_hal_flash_ex.o ABSOLUTE
    ../Drivers/STM32F7xx_HAL_Driver/Src/stm32f7xx_hal_gpio.c 0x00000000   Number         0  stm32f7xx_hal_gpio.o ABSOLUTE
    ../Drivers/STM32F7xx_HAL_Driver/Src/stm32f7xx_hal_i2c.c 0x00000000   Number         0  stm32f7xx_hal_i2c.o ABSOLUTE
    ../Drivers/STM32F7xx_HAL_Driver/Src/stm32f7xx_hal_i2c_ex.c 0x00000000   Number         0  stm32f7xx_hal_i2c_ex.o ABSOLUTE
    ../Drivers/STM32F7xx_HAL_Driver/Src/stm32f7xx_hal_pcd.c 0x00000000   Number         0  stm32f7xx_hal_pcd.o ABSOLUTE
    ../Drivers/STM32F7xx_HAL_Driver/Src/stm32f7xx_hal_pcd_ex.c 0x00000000   Number         0  stm32f7xx_hal_pcd_ex.o ABSOLUTE
    ../Drivers/STM32F7xx_HAL_Driver/Src/stm32f7xx_hal_pwr.c 0x00000000   Number         0  stm32f7xx_hal_pwr.o ABSOLUTE
    ../Drivers/STM32F7xx_HAL_Driver/Src/stm32f7xx_hal_pwr_ex.c 0x00000000   Number         0  stm32f7xx_hal_pwr_ex.o ABSOLUTE
    ../Drivers/STM32F7xx_HAL_Driver/Src/stm32f7xx_hal_rcc.c 0x00000000   Number         0  stm32f7xx_hal_rcc.o ABSOLUTE
    ../Drivers/STM32F7xx_HAL_Driver/Src/stm32f7xx_hal_rcc_ex.c 0x00000000   Number         0  stm32f7xx_hal_rcc_ex.o ABSOLUTE
    ../Drivers/STM32F7xx_HAL_Driver/Src/stm32f7xx_hal_spi.c 0x00000000   Number         0  stm32f7xx_hal_spi.o ABSOLUTE
    ../Drivers/STM32F7xx_HAL_Driver/Src/stm32f7xx_hal_tim.c 0x00000000   Number         0  stm32f7xx_hal_tim.o ABSOLUTE
    ../Drivers/STM32F7xx_HAL_Driver/Src/stm32f7xx_hal_tim_ex.c 0x00000000   Number         0  stm32f7xx_hal_tim_ex.o ABSOLUTE
    ../Drivers/STM32F7xx_HAL_Driver/Src/stm32f7xx_hal_uart.c 0x00000000   Number         0  stm32f7xx_hal_uart.o ABSOLUTE
    ../Drivers/STM32F7xx_HAL_Driver/Src/stm32f7xx_ll_usb.c 0x00000000   Number         0  stm32f7xx_ll_usb.o ABSOLUTE
    ../Src/main.c                            0x00000000   Number         0  main.o ABSOLUTE
    ../Src/stm32f7xx_hal_msp.c               0x00000000   Number         0  stm32f7xx_hal_msp.o ABSOLUTE
    ../Src/stm32f7xx_it.c                    0x00000000   Number         0  stm32f7xx_it.o ABSOLUTE
    ../Src/system_stm32f7xx.c                0x00000000   Number         0  system_stm32f7xx.o ABSOLUTE
    ../clib/microlib/division.c              0x00000000   Number         0  uldiv.o ABSOLUTE
    ../clib/microlib/init/entry.s            0x00000000   Number         0  entry9b.o ABSOLUTE
    ../clib/microlib/init/entry.s            0x00000000   Number         0  entry10a.o ABSOLUTE
    ../clib/microlib/init/entry.s            0x00000000   Number         0  entry9a.o ABSOLUTE
    ../clib/microlib/init/entry.s            0x00000000   Number         0  entry8b.o ABSOLUTE
    ../clib/microlib/init/entry.s            0x00000000   Number         0  entry8a.o ABSOLUTE
    ../clib/microlib/init/entry.s            0x00000000   Number         0  entry.o ABSOLUTE
    ../clib/microlib/init/entry.s            0x00000000   Number         0  entry2.o ABSOLUTE
    ../clib/microlib/init/entry.s            0x00000000   Number         0  entry5.o ABSOLUTE
    ../clib/microlib/init/entry.s            0x00000000   Number         0  entry7a.o ABSOLUTE
    ../clib/microlib/init/entry.s            0x00000000   Number         0  entry7b.o ABSOLUTE
    ../clib/microlib/init/entry.s            0x00000000   Number         0  entry10b.o ABSOLUTE
    ../clib/microlib/init/entry.s            0x00000000   Number         0  entry11a.o ABSOLUTE
    ../clib/microlib/init/entry.s            0x00000000   Number         0  entry11b.o ABSOLUTE
    ../clib/microlib/longlong.c              0x00000000   Number         0  llshl.o ABSOLUTE
    ../clib/microlib/longlong.c              0x00000000   Number         0  llushr.o ABSOLUTE
    ../clib/microlib/malloc/malloc.c         0x00000000   Number         0  malloc.o ABSOLUTE
    ../clib/microlib/malloc/malloc.c         0x00000000   Number         0  malloca.o ABSOLUTE
    ../clib/microlib/malloc/malloc.c         0x00000000   Number         0  mallocr.o ABSOLUTE
    ../clib/microlib/malloc/malloc.c         0x00000000   Number         0  mallocra.o ABSOLUTE
    ../clib/microlib/malloc/mvars.c          0x00000000   Number         0  mvars.o ABSOLUTE
    ../clib/microlib/string/memcpy.c         0x00000000   Number         0  memcpya.o ABSOLUTE
    ../clib/microlib/string/memcpy.c         0x00000000   Number         0  memcpyb.o ABSOLUTE
    ../clib/microlib/string/memset.c         0x00000000   Number         0  memseta.o ABSOLUTE
    ..\Drivers\STM32F7xx_HAL_Driver\Src\stm32f7xx_hal.c 0x00000000   Number         0  stm32f7xx_hal.o ABSOLUTE
    ..\Drivers\STM32F7xx_HAL_Driver\Src\stm32f7xx_hal_cortex.c 0x00000000   Number         0  stm32f7xx_hal_cortex.o ABSOLUTE
    ..\Drivers\STM32F7xx_HAL_Driver\Src\stm32f7xx_hal_dma.c 0x00000000   Number         0  stm32f7xx_hal_dma.o ABSOLUTE
    ..\Drivers\STM32F7xx_HAL_Driver\Src\stm32f7xx_hal_dma_ex.c 0x00000000   Number         0  stm32f7xx_hal_dma_ex.o ABSOLUTE
    ..\Drivers\STM32F7xx_HAL_Driver\Src\stm32f7xx_hal_eth.c 0x00000000   Number         0  stm32f7xx_hal_eth.o ABSOLUTE
    ..\Drivers\STM32F7xx_HAL_Driver\Src\stm32f7xx_hal_flash.c 0x00000000   Number         0  stm32f7xx_hal_flash.o ABSOLUTE
    ..\Drivers\STM32F7xx_HAL_Driver\Src\stm32f7xx_hal_flash_ex.c 0x00000000   Number         0  stm32f7xx_hal_flash_ex.o ABSOLUTE
    ..\Drivers\STM32F7xx_HAL_Driver\Src\stm32f7xx_hal_gpio.c 0x00000000   Number         0  stm32f7xx_hal_gpio.o ABSOLUTE
    ..\Drivers\STM32F7xx_HAL_Driver\Src\stm32f7xx_hal_i2c.c 0x00000000   Number         0  stm32f7xx_hal_i2c.o ABSOLUTE
    ..\Drivers\STM32F7xx_HAL_Driver\Src\stm32f7xx_hal_i2c_ex.c 0x00000000   Number         0  stm32f7xx_hal_i2c_ex.o ABSOLUTE
    ..\Drivers\STM32F7xx_HAL_Driver\Src\stm32f7xx_hal_pcd.c 0x00000000   Number         0  stm32f7xx_hal_pcd.o ABSOLUTE
    ..\Drivers\STM32F7xx_HAL_Driver\Src\stm32f7xx_hal_pcd_ex.c 0x00000000   Number         0  stm32f7xx_hal_pcd_ex.o ABSOLUTE
    ..\Drivers\STM32F7xx_HAL_Driver\Src\stm32f7xx_hal_pwr.c 0x00000000   Number         0  stm32f7xx_hal_pwr.o ABSOLUTE
    ..\Drivers\STM32F7xx_HAL_Driver\Src\stm32f7xx_hal_pwr_ex.c 0x00000000   Number         0  stm32f7xx_hal_pwr_ex.o ABSOLUTE
    ..\Drivers\STM32F7xx_HAL_Driver\Src\stm32f7xx_hal_rcc.c 0x00000000   Number         0  stm32f7xx_hal_rcc.o ABSOLUTE
    ..\Drivers\STM32F7xx_HAL_Driver\Src\stm32f7xx_hal_rcc_ex.c 0x00000000   Number         0  stm32f7xx_hal_rcc_ex.o ABSOLUTE
    ..\Drivers\STM32F7xx_HAL_Driver\Src\stm32f7xx_hal_spi.c 0x00000000   Number         0  stm32f7xx_hal_spi.o ABSOLUTE
    ..\Drivers\STM32F7xx_HAL_Driver\Src\stm32f7xx_hal_tim.c 0x00000000   Number         0  stm32f7xx_hal_tim.o ABSOLUTE
    ..\Drivers\STM32F7xx_HAL_Driver\Src\stm32f7xx_hal_tim_ex.c 0x00000000   Number         0  stm32f7xx_hal_tim_ex.o ABSOLUTE
    ..\Drivers\STM32F7xx_HAL_Driver\Src\stm32f7xx_hal_uart.c 0x00000000   Number         0  stm32f7xx_hal_uart.o ABSOLUTE
    ..\Drivers\STM32F7xx_HAL_Driver\Src\stm32f7xx_ll_usb.c 0x00000000   Number         0  stm32f7xx_ll_usb.o ABSOLUTE
    ..\Src\bmi088.c                          0x00000000   Number         0  bmi088.o ABSOLUTE
    ..\Src\bmi088_stm32.c                    0x00000000   Number         0  bmi088_stm32.o ABSOLUTE
    ..\Src\bmi08a.c                          0x00000000   Number         0  bmi08a.o ABSOLUTE
    ..\Src\bmi08g.c                          0x00000000   Number         0  bmi08g.o ABSOLUTE
    ..\Src\main.c                            0x00000000   Number         0  main.o ABSOLUTE
    ..\Src\stm32f7xx_hal_msp.c               0x00000000   Number         0  stm32f7xx_hal_msp.o ABSOLUTE
    ..\Src\stm32f7xx_it.c                    0x00000000   Number         0  stm32f7xx_it.o ABSOLUTE
    ..\Src\system_stm32f7xx.c                0x00000000   Number         0  system_stm32f7xx.o ABSOLUTE
    ..\\Src\\bmi088_stm32.c                  0x00000000   Number         0  bmi088_stm32.o ABSOLUTE
    dc.s                                     0x00000000   Number         0  dc.o ABSOLUTE
    handlers.s                               0x00000000   Number         0  handlers.o ABSOLUTE
    init.s                                   0x00000000   Number         0  init.o ABSOLUTE
    startup_stm32f767xx.s                    0x00000000   Number         0  startup_stm32f767xx.o ABSOLUTE
    RESET                                    0x08000000   Section      504  startup_stm32f767xx.o(RESET)
    .ARM.Collect$$$$00000000                 0x080001f8   Section        0  entry.o(.ARM.Collect$$$$00000000)
    .ARM.Collect$$$$00000001                 0x080001f8   Section        4  entry2.o(.ARM.Collect$$$$00000001)
    .ARM.Collect$$$$00000004                 0x080001fc   Section        4  entry5.o(.ARM.Collect$$$$00000004)
    .ARM.Collect$$$$00000008                 0x08000200   Section        0  entry7b.o(.ARM.Collect$$$$00000008)
    .ARM.Collect$$$$0000000A                 0x08000200   Section        0  entry8b.o(.ARM.Collect$$$$0000000A)
    .ARM.Collect$$$$0000000B                 0x08000200   Section        8  entry9a.o(.ARM.Collect$$$$0000000B)
    .ARM.Collect$$$$0000000D                 0x08000208   Section        0  entry10a.o(.ARM.Collect$$$$0000000D)
    .ARM.Collect$$$$0000000F                 0x08000208   Section        0  entry11a.o(.ARM.Collect$$$$0000000F)
    .ARM.Collect$$$$00002712                 0x08000208   Section        4  entry2.o(.ARM.Collect$$$$00002712)
    __lit__00000000                          0x08000208   Data           4  entry2.o(.ARM.Collect$$$$00002712)
    .text                                    0x0800020c   Section       36  startup_stm32f767xx.o(.text)
    $v0                                      0x0800020c   Number         0  startup_stm32f767xx.o(.text)
    .text                                    0x08000230   Section        0  uldiv.o(.text)
    .text                                    0x08000292   Section        0  memcpya.o(.text)
    .text                                    0x080002b6   Section        0  memseta.o(.text)
    .text                                    0x080002da   Section        0  llshl.o(.text)
    .text                                    0x080002f8   Section        0  llushr.o(.text)
    .text                                    0x08000318   Section       36  init.o(.text)
    i.BusFault_Handler                       0x0800033c   Section        0  stm32f7xx_it.o(i.BusFault_Handler)
    i.DebugMon_Handler                       0x0800033e   Section        0  stm32f7xx_it.o(i.DebugMon_Handler)
    i.ETH_MACDMAConfig                       0x08000340   Section        0  stm32f7xx_hal_eth.o(i.ETH_MACDMAConfig)
    ETH_MACDMAConfig                         0x08000341   Thumb Code   268  stm32f7xx_hal_eth.o(i.ETH_MACDMAConfig)
    i.EXTI0_IRQHandler                       0x08000464   Section        0  stm32f7xx_it.o(i.EXTI0_IRQHandler)
    i.EXTI1_IRQHandler                       0x080004f0   Section        0  stm32f7xx_it.o(i.EXTI1_IRQHandler)
    i.HAL_Delay                              0x080004f8   Section        0  stm32f7xx_hal.o(i.HAL_Delay)
    i.HAL_ETH_Init                           0x0800051c   Section        0  stm32f7xx_hal_eth.o(i.HAL_ETH_Init)
    i.HAL_ETH_MspInit                        0x0800070c   Section        0  stm32f7xx_hal_msp.o(i.HAL_ETH_MspInit)
    i.HAL_ETH_ReadPHYRegister                0x080007f4   Section        0  stm32f7xx_hal_eth.o(i.HAL_ETH_ReadPHYRegister)
    i.HAL_ETH_WritePHYRegister               0x0800087c   Section        0  stm32f7xx_hal_eth.o(i.HAL_ETH_WritePHYRegister)
    i.HAL_GPIO_EXTI_Callback                 0x080008f6   Section        0  stm32f7xx_hal_gpio.o(i.HAL_GPIO_EXTI_Callback)
    i.HAL_GPIO_EXTI_IRQHandler               0x080008f8   Section        0  stm32f7xx_hal_gpio.o(i.HAL_GPIO_EXTI_IRQHandler)
    i.HAL_GPIO_Init                          0x08000910   Section        0  stm32f7xx_hal_gpio.o(i.HAL_GPIO_Init)
    i.HAL_GPIO_TogglePin                     0x08000ae8   Section        0  stm32f7xx_hal_gpio.o(i.HAL_GPIO_TogglePin)
    i.HAL_GPIO_WritePin                      0x08000af0   Section        0  stm32f7xx_hal_gpio.o(i.HAL_GPIO_WritePin)
    i.HAL_GetTick                            0x08000afc   Section        0  stm32f7xx_hal.o(i.HAL_GetTick)
    i.HAL_IncTick                            0x08000b08   Section        0  stm32f7xx_hal.o(i.HAL_IncTick)
    i.HAL_Init                               0x08000b18   Section        0  stm32f7xx_hal.o(i.HAL_Init)
    i.HAL_InitTick                           0x08000b30   Section        0  stm32f7xx_hal.o(i.HAL_InitTick)
    i.HAL_MspInit                            0x08000b70   Section        0  stm32f7xx_hal_msp.o(i.HAL_MspInit)
    i.HAL_NVIC_EnableIRQ                     0x08000ba0   Section        0  stm32f7xx_hal_cortex.o(i.HAL_NVIC_EnableIRQ)
    i.HAL_NVIC_SetPriority                   0x08000bb8   Section        0  stm32f7xx_hal_cortex.o(i.HAL_NVIC_SetPriority)
    i.HAL_NVIC_SetPriorityGrouping           0x08000bf8   Section        0  stm32f7xx_hal_cortex.o(i.HAL_NVIC_SetPriorityGrouping)
    i.HAL_PCDEx_ActivateLPM                  0x08000c1c   Section        0  stm32f7xx_hal_pcd_ex.o(i.HAL_PCDEx_ActivateLPM)
    i.HAL_PCD_Init                           0x08000c44   Section        0  stm32f7xx_hal_pcd.o(i.HAL_PCD_Init)
    i.HAL_PCD_MspInit                        0x08000d14   Section        0  stm32f7xx_hal_msp.o(i.HAL_PCD_MspInit)
    i.HAL_PWREx_EnableOverDrive              0x08000da0   Section        0  stm32f7xx_hal_pwr_ex.o(i.HAL_PWREx_EnableOverDrive)
    i.HAL_PWR_EnableBkUpAccess               0x08000e0c   Section        0  stm32f7xx_hal_pwr.o(i.HAL_PWR_EnableBkUpAccess)
    i.HAL_RCCEx_PeriphCLKConfig              0x08000e1c   Section        0  stm32f7xx_hal_rcc_ex.o(i.HAL_RCCEx_PeriphCLKConfig)
    i.HAL_RCC_ClockConfig                    0x08001358   Section        0  stm32f7xx_hal_rcc.o(i.HAL_RCC_ClockConfig)
    i.HAL_RCC_GetHCLKFreq                    0x08001484   Section        0  stm32f7xx_hal_rcc.o(i.HAL_RCC_GetHCLKFreq)
    i.HAL_RCC_GetPCLK1Freq                   0x08001490   Section        0  stm32f7xx_hal_rcc.o(i.HAL_RCC_GetPCLK1Freq)
    i.HAL_RCC_GetPCLK2Freq                   0x080014b0   Section        0  stm32f7xx_hal_rcc.o(i.HAL_RCC_GetPCLK2Freq)
    i.HAL_RCC_GetSysClockFreq                0x080014d0   Section        0  stm32f7xx_hal_rcc.o(i.HAL_RCC_GetSysClockFreq)
    i.HAL_RCC_OscConfig                      0x08001530   Section        0  stm32f7xx_hal_rcc.o(i.HAL_RCC_OscConfig)
    i.HAL_SPI_GetState                       0x0800186c   Section        0  stm32f7xx_hal_spi.o(i.HAL_SPI_GetState)
    i.HAL_SPI_Init                           0x08001872   Section        0  stm32f7xx_hal_spi.o(i.HAL_SPI_Init)
    i.HAL_SPI_MspInit                        0x08001938   Section        0  stm32f7xx_hal_msp.o(i.HAL_SPI_MspInit)
    i.HAL_SPI_Receive                        0x080019bc   Section        0  stm32f7xx_hal_spi.o(i.HAL_SPI_Receive)
    i.HAL_SPI_Transmit                       0x08001b2e   Section        0  stm32f7xx_hal_spi.o(i.HAL_SPI_Transmit)
    i.HAL_SPI_TransmitReceive                0x08001c6c   Section        0  stm32f7xx_hal_spi.o(i.HAL_SPI_TransmitReceive)
    i.HAL_SYSTICK_Config                     0x08001e96   Section        0  stm32f7xx_hal_cortex.o(i.HAL_SYSTICK_Config)
    i.HAL_UART_Init                          0x08001ebc   Section        0  stm32f7xx_hal_uart.o(i.HAL_UART_Init)
    i.HAL_UART_MspInit                       0x08001f28   Section        0  stm32f7xx_hal_msp.o(i.HAL_UART_MspInit)
    i.HardFault_Handler                      0x08001f8c   Section        0  stm32f7xx_it.o(i.HardFault_Handler)
    i.MX_ETH_Init                            0x08001f90   Section        0  main.o(i.MX_ETH_Init)
    MX_ETH_Init                              0x08001f91   Thumb Code    62  main.o(i.MX_ETH_Init)
    i.MX_GPIO_Init                           0x08001fd8   Section        0  main.o(i.MX_GPIO_Init)
    MX_GPIO_Init                             0x08001fd9   Thumb Code   296  main.o(i.MX_GPIO_Init)
    i.MX_SPI1_Init                           0x08002118   Section        0  main.o(i.MX_SPI1_Init)
    MX_SPI1_Init                             0x08002119   Thumb Code    58  main.o(i.MX_SPI1_Init)
    i.MX_USART3_UART_Init                    0x0800215c   Section        0  main.o(i.MX_USART3_UART_Init)
    MX_USART3_UART_Init                      0x0800215d   Thumb Code    40  main.o(i.MX_USART3_UART_Init)
    i.MX_USB_OTG_FS_PCD_Init                 0x0800218c   Section        0  main.o(i.MX_USB_OTG_FS_PCD_Init)
    MX_USB_OTG_FS_PCD_Init                   0x0800218d   Thumb Code    42  main.o(i.MX_USB_OTG_FS_PCD_Init)
    i.MemManage_Handler                      0x080021bc   Section        0  stm32f7xx_it.o(i.MemManage_Handler)
    i.NMI_Handler                            0x080021be   Section        0  stm32f7xx_it.o(i.NMI_Handler)
    i.NVIC_SetPriority                       0x080021c0   Section        0  stm32f7xx_hal_cortex.o(i.NVIC_SetPriority)
    NVIC_SetPriority                         0x080021c1   Thumb Code    34  stm32f7xx_hal_cortex.o(i.NVIC_SetPriority)
    i.PendSV_Handler                         0x080021e2   Section        0  stm32f7xx_it.o(i.PendSV_Handler)
    i.SPI_EndRxTransaction                   0x080021e4   Section        0  stm32f7xx_hal_spi.o(i.SPI_EndRxTransaction)
    SPI_EndRxTransaction                     0x080021e5   Thumb Code   116  stm32f7xx_hal_spi.o(i.SPI_EndRxTransaction)
    i.SPI_EndRxTxTransaction                 0x08002258   Section        0  stm32f7xx_hal_spi.o(i.SPI_EndRxTxTransaction)
    SPI_EndRxTxTransaction                   0x08002259   Thumb Code    72  stm32f7xx_hal_spi.o(i.SPI_EndRxTxTransaction)
    i.SPI_WaitFifoStateUntilTimeout          0x080022a0   Section        0  stm32f7xx_hal_spi.o(i.SPI_WaitFifoStateUntilTimeout)
    SPI_WaitFifoStateUntilTimeout            0x080022a1   Thumb Code   160  stm32f7xx_hal_spi.o(i.SPI_WaitFifoStateUntilTimeout)
    i.SPI_WaitFlagStateUntilTimeout          0x08002340   Section        0  stm32f7xx_hal_spi.o(i.SPI_WaitFlagStateUntilTimeout)
    SPI_WaitFlagStateUntilTimeout            0x08002341   Thumb Code   140  stm32f7xx_hal_spi.o(i.SPI_WaitFlagStateUntilTimeout)
    i.SVC_Handler                            0x080023cc   Section        0  stm32f7xx_it.o(i.SVC_Handler)
    i.SysTick_Handler                        0x080023ce   Section        0  stm32f7xx_it.o(i.SysTick_Handler)
    i.SystemClock_Config                     0x080023d4   Section        0  main.o(i.SystemClock_Config)
    i.SystemInit                             0x0800247c   Section        0  system_stm32f7xx.o(i.SystemInit)
    i.UART_AdvFeatureConfig                  0x080024d0   Section        0  stm32f7xx_hal_uart.o(i.UART_AdvFeatureConfig)
    i.UART_CheckIdleState                    0x08002598   Section        0  stm32f7xx_hal_uart.o(i.UART_CheckIdleState)
    i.UART_SetConfig                         0x080025d8   Section        0  stm32f7xx_hal_uart.o(i.UART_SetConfig)
    i.UART_WaitOnFlagUntilTimeout            0x08002830   Section        0  stm32f7xx_hal_uart.o(i.UART_WaitOnFlagUntilTimeout)
    i.USB_CoreInit                           0x08002894   Section        0  stm32f7xx_ll_usb.o(i.USB_CoreInit)
    i.USB_CoreReset                          0x08002904   Section        0  stm32f7xx_ll_usb.o(i.USB_CoreReset)
    USB_CoreReset                            0x08002905   Thumb Code    50  stm32f7xx_ll_usb.o(i.USB_CoreReset)
    i.USB_DevDisconnect                      0x0800293c   Section        0  stm32f7xx_ll_usb.o(i.USB_DevDisconnect)
    i.USB_DevInit                            0x08002954   Section        0  stm32f7xx_ll_usb.o(i.USB_DevInit)
    i.USB_DisableGlobalInt                   0x08002ad8   Section        0  stm32f7xx_ll_usb.o(i.USB_DisableGlobalInt)
    i.USB_FlushRxFifo                        0x08002ae4   Section        0  stm32f7xx_ll_usb.o(i.USB_FlushRxFifo)
    i.USB_FlushTxFifo                        0x08002b04   Section        0  stm32f7xx_ll_usb.o(i.USB_FlushTxFifo)
    i.USB_SetCurrentMode                     0x08002b28   Section        0  stm32f7xx_ll_usb.o(i.USB_SetCurrentMode)
    i.UsageFault_Handler                     0x08002b56   Section        0  stm32f7xx_it.o(i.UsageFault_Handler)
    i.__scatterload_copy                     0x08002b58   Section       14  handlers.o(i.__scatterload_copy)
    i.__scatterload_null                     0x08002b66   Section        2  handlers.o(i.__scatterload_null)
    i.__scatterload_zeroinit                 0x08002b68   Section       14  handlers.o(i.__scatterload_zeroinit)
    i.bmi088_apply_config_file               0x08002b78   Section        0  bmi088.o(i.bmi088_apply_config_file)
    i.bmi088_configure_data_synchronization  0x08002b98   Section        0  bmi088.o(i.bmi088_configure_data_synchronization)
    i.bmi088_get_synchronized_data           0x08002c00   Section        0  bmi088.o(i.bmi088_get_synchronized_data)
    i.bmi088_init                            0x08002c6e   Section        0  bmi088.o(i.bmi088_init)
    i.bmi088_set_data_sync_int_config        0x08002c86   Section        0  bmi088.o(i.bmi088_set_data_sync_int_config)
    i.bmi08a_get_regs                        0x08002cbc   Section        0  bmi08a.o(i.bmi08a_get_regs)
    i.bmi08a_init                            0x08002cf2   Section        0  bmi08a.o(i.bmi08a_init)
    i.bmi08a_set_int_config                  0x08002d42   Section        0  bmi08a.o(i.bmi08a_set_int_config)
    i.bmi08a_set_meas_conf                   0x08002e4c   Section        0  bmi08a.o(i.bmi08a_set_meas_conf)
    i.bmi08a_set_power_mode                  0x08002ed4   Section        0  bmi08a.o(i.bmi08a_set_power_mode)
    i.bmi08a_set_regs                        0x08002f34   Section        0  bmi08a.o(i.bmi08a_set_regs)
    i.bmi08a_soft_reset                      0x08002f6a   Section        0  bmi08a.o(i.bmi08a_soft_reset)
    i.bmi08a_write_config_file               0x08002faa   Section        0  bmi08a.o(i.bmi08a_write_config_file)
    i.bmi08a_write_feature_config            0x080030b8   Section        0  bmi08a.o(i.bmi08a_write_feature_config)
    i.bmi08g_get_data                        0x08003128   Section        0  bmi08g.o(i.bmi08g_get_data)
    i.bmi08g_init                            0x0800317a   Section        0  bmi08g.o(i.bmi08g_init)
    i.bmi08g_set_int_config                  0x080031ac   Section        0  bmi08g.o(i.bmi08g_set_int_config)
    i.bmi08g_set_meas_conf                   0x080031d8   Section        0  bmi08g.o(i.bmi08g_set_meas_conf)
    i.bmi08g_set_power_mode                  0x08003262   Section        0  bmi08g.o(i.bmi08g_set_power_mode)
    i.free                                   0x080032c4   Section        0  malloc.o(i.free)
    i.get_regs                               0x08003314   Section        0  bmi08g.o(i.get_regs)
    get_regs                                 0x08003315   Thumb Code    36  bmi08g.o(i.get_regs)
    i.get_regs                               0x08003338   Section        0  bmi08a.o(i.get_regs)
    get_regs                                 0x08003339   Thumb Code    96  bmi08a.o(i.get_regs)
    i.main                                   0x08003398   Section        0  main.o(i.main)
    i.malloc                                 0x08003474   Section        0  malloc.o(i.malloc)
    i.null_ptr_check                         0x080034e0   Section        0  bmi088.o(i.null_ptr_check)
    null_ptr_check                           0x080034e1   Thumb Code    24  bmi088.o(i.null_ptr_check)
    i.null_ptr_check                         0x080034f8   Section        0  bmi08g.o(i.null_ptr_check)
    null_ptr_check                           0x080034f9   Thumb Code    24  bmi08g.o(i.null_ptr_check)
    i.null_ptr_check                         0x08003510   Section        0  bmi08a.o(i.null_ptr_check)
    null_ptr_check                           0x08003511   Thumb Code    24  bmi08a.o(i.null_ptr_check)
    i.set_gyro_data_ready_int                0x08003528   Section        0  bmi08g.o(i.set_gyro_data_ready_int)
    set_gyro_data_ready_int                  0x08003529   Thumb Code   208  bmi08g.o(i.set_gyro_data_ready_int)
    i.set_int_pin_config                     0x080035f8   Section        0  bmi08a.o(i.set_int_pin_config)
    set_int_pin_config                       0x080035f9   Thumb Code   132  bmi08a.o(i.set_int_pin_config)
    i.set_regs                               0x0800367c   Section        0  bmi08g.o(i.set_regs)
    set_regs                                 0x0800367d   Thumb Code    36  bmi08g.o(i.set_regs)
    i.set_regs                               0x080036a0   Section        0  bmi08a.o(i.set_regs)
    set_regs                                 0x080036a1   Thumb Code    36  bmi08a.o(i.set_regs)
    i.stm32_spi_read                         0x080036c4   Section        0  bmi088_stm32.o(i.stm32_spi_read)
    i.stm32_spi_write                        0x08003718   Section        0  bmi088_stm32.o(i.stm32_spi_write)
    .constdata                               0x08003780   Section       16  system_stm32f7xx.o(.constdata)
    .constdata                               0x08003790   Section        8  system_stm32f7xx.o(.constdata)
    .constdata                               0x08003798   Section     6144  bmi08a.o(.constdata)
    .data                                    0x20000000   Section       44  main.o(.data)
    .data                                    0x2000002c   Section        6  main.o(.data)
    .data                                    0x20000032   Section        6  main.o(.data)
    .data                                    0x20000038   Section        4  stm32f7xx_it.o(.data)
    .data                                    0x2000003c   Section       12  stm32f7xx_hal.o(.data)
    .data                                    0x20000048   Section        4  system_stm32f7xx.o(.data)
    .data                                    0x2000004c   Section        4  mvars.o(.data)
    .data                                    0x20000050   Section        4  mvars.o(.data)
    .bss                                     0x20000054   Section     1320  main.o(.bss)
    HEAP                                     0x20000580   Section      512  startup_stm32f767xx.o(HEAP)
    STACK                                    0x20000780   Section     1024  startup_stm32f767xx.o(STACK)

    Global Symbols

    Symbol Name                              Value     Ov Type        Size  Object(Section)

    BuildAttributes$$THM_ISAv4$E$P$D$K$B$S$7EM$VFPv5_D16$PE$PLD8$A:L22UL41UL21$X:L11$S22US41US21$IEEE1$IW$USESV6$~STKCKD$USESV7$~SHL$OSPACE$EBA8$MICROLIB$REQ8$PRES8$EABIv2 0x00000000   Number         0  anon$$obj.o ABSOLUTE
    __ARM_use_no_argv                        0x00000000   Number         0  main.o ABSOLUTE
    __cpp_initialize__aeabi_                  - Undefined Weak Reference
    __cxa_finalize                            - Undefined Weak Reference
    __decompress                              - Undefined Weak Reference
    _clock_init                               - Undefined Weak Reference
    _microlib_exit                            - Undefined Weak Reference
    __Vectors_Size                           0x000001f8   Number         0  startup_stm32f767xx.o ABSOLUTE
    __Vectors                                0x08000000   Data           4  startup_stm32f767xx.o(RESET)
    __Vectors_End                            0x080001f8   Data           0  startup_stm32f767xx.o(RESET)
    __main                                   0x080001f9   Thumb Code     0  entry.o(.ARM.Collect$$$$00000000)
    _main_stk                                0x080001f9   Thumb Code     0  entry2.o(.ARM.Collect$$$$00000001)
    _main_scatterload                        0x080001fd   Thumb Code     0  entry5.o(.ARM.Collect$$$$00000004)
    __main_after_scatterload                 0x08000201   Thumb Code     0  entry5.o(.ARM.Collect$$$$00000004)
    _main_clock                              0x08000201   Thumb Code     0  entry7b.o(.ARM.Collect$$$$00000008)
    _main_cpp_init                           0x08000201   Thumb Code     0  entry8b.o(.ARM.Collect$$$$0000000A)
    _main_init                               0x08000201   Thumb Code     0  entry9a.o(.ARM.Collect$$$$0000000B)
    __rt_final_cpp                           0x08000209   Thumb Code     0  entry10a.o(.ARM.Collect$$$$0000000D)
    __rt_final_exit                          0x08000209   Thumb Code     0  entry11a.o(.ARM.Collect$$$$0000000F)
    Reset_Handler                            0x0800020d   Thumb Code     8  startup_stm32f767xx.o(.text)
    ADC_IRQHandler                           0x08000227   Thumb Code     0  startup_stm32f767xx.o(.text)
    CAN1_RX0_IRQHandler                      0x08000227   Thumb Code     0  startup_stm32f767xx.o(.text)
    CAN1_RX1_IRQHandler                      0x08000227   Thumb Code     0  startup_stm32f767xx.o(.text)
    CAN1_SCE_IRQHandler                      0x08000227   Thumb Code     0  startup_stm32f767xx.o(.text)
    CAN1_TX_IRQHandler                       0x08000227   Thumb Code     0  startup_stm32f767xx.o(.text)
    CAN2_RX0_IRQHandler                      0x08000227   Thumb Code     0  startup_stm32f767xx.o(.text)
    CAN2_RX1_IRQHandler                      0x08000227   Thumb Code     0  startup_stm32f767xx.o(.text)
    CAN2_SCE_IRQHandler                      0x08000227   Thumb Code     0  startup_stm32f767xx.o(.text)
    CAN2_TX_IRQHandler                       0x08000227   Thumb Code     0  startup_stm32f767xx.o(.text)
    CAN3_RX0_IRQHandler                      0x08000227   Thumb Code     0  startup_stm32f767xx.o(.text)
    CAN3_RX1_IRQHandler                      0x08000227   Thumb Code     0  startup_stm32f767xx.o(.text)
    CAN3_SCE_IRQHandler                      0x08000227   Thumb Code     0  startup_stm32f767xx.o(.text)
    CAN3_TX_IRQHandler                       0x08000227   Thumb Code     0  startup_stm32f767xx.o(.text)
    CEC_IRQHandler                           0x08000227   Thumb Code     0  startup_stm32f767xx.o(.text)
    DCMI_IRQHandler                          0x08000227   Thumb Code     0  startup_stm32f767xx.o(.text)
    DFSDM1_FLT0_IRQHandler                   0x08000227   Thumb Code     0  startup_stm32f767xx.o(.text)
    DFSDM1_FLT1_IRQHandler                   0x08000227   Thumb Code     0  startup_stm32f767xx.o(.text)
    DFSDM1_FLT2_IRQHandler                   0x08000227   Thumb Code     0  startup_stm32f767xx.o(.text)
    DFSDM1_FLT3_IRQHandler                   0x08000227   Thumb Code     0  startup_stm32f767xx.o(.text)
    DMA1_Stream0_IRQHandler                  0x08000227   Thumb Code     0  startup_stm32f767xx.o(.text)
    DMA1_Stream1_IRQHandler                  0x08000227   Thumb Code     0  startup_stm32f767xx.o(.text)
    DMA1_Stream2_IRQHandler                  0x08000227   Thumb Code     0  startup_stm32f767xx.o(.text)
    DMA1_Stream3_IRQHandler                  0x08000227   Thumb Code     0  startup_stm32f767xx.o(.text)
    DMA1_Stream4_IRQHandler                  0x08000227   Thumb Code     0  startup_stm32f767xx.o(.text)
    DMA1_Stream5_IRQHandler                  0x08000227   Thumb Code     0  startup_stm32f767xx.o(.text)
    DMA1_Stream6_IRQHandler                  0x08000227   Thumb Code     0  startup_stm32f767xx.o(.text)
    DMA1_Stream7_IRQHandler                  0x08000227   Thumb Code     0  startup_stm32f767xx.o(.text)
    DMA2D_IRQHandler                         0x08000227   Thumb Code     0  startup_stm32f767xx.o(.text)
    DMA2_Stream0_IRQHandler                  0x08000227   Thumb Code     0  startup_stm32f767xx.o(.text)
    DMA2_Stream1_IRQHandler                  0x08000227   Thumb Code     0  startup_stm32f767xx.o(.text)
    DMA2_Stream2_IRQHandler                  0x08000227   Thumb Code     0  startup_stm32f767xx.o(.text)
    DMA2_Stream3_IRQHandler                  0x08000227   Thumb Code     0  startup_stm32f767xx.o(.text)
    DMA2_Stream4_IRQHandler                  0x08000227   Thumb Code     0  startup_stm32f767xx.o(.text)
    DMA2_Stream5_IRQHandler                  0x08000227   Thumb Code     0  startup_stm32f767xx.o(.text)
    DMA2_Stream6_IRQHandler                  0x08000227   Thumb Code     0  startup_stm32f767xx.o(.text)
    DMA2_Stream7_IRQHandler                  0x08000227   Thumb Code     0  startup_stm32f767xx.o(.text)
    ETH_IRQHandler                           0x08000227   Thumb Code     0  startup_stm32f767xx.o(.text)
    ETH_WKUP_IRQHandler                      0x08000227   Thumb Code     0  startup_stm32f767xx.o(.text)
    EXTI15_10_IRQHandler                     0x08000227   Thumb Code     0  startup_stm32f767xx.o(.text)
    EXTI2_IRQHandler                         0x08000227   Thumb Code     0  startup_stm32f767xx.o(.text)
    EXTI3_IRQHandler                         0x08000227   Thumb Code     0  startup_stm32f767xx.o(.text)
    EXTI4_IRQHandler                         0x08000227   Thumb Code     0  startup_stm32f767xx.o(.text)
    EXTI9_5_IRQHandler                       0x08000227   Thumb Code     0  startup_stm32f767xx.o(.text)
    FLASH_IRQHandler                         0x08000227   Thumb Code     0  startup_stm32f767xx.o(.text)
    FMC_IRQHandler                           0x08000227   Thumb Code     0  startup_stm32f767xx.o(.text)
    FPU_IRQHandler                           0x08000227   Thumb Code     0  startup_stm32f767xx.o(.text)
    I2C1_ER_IRQHandler                       0x08000227   Thumb Code     0  startup_stm32f767xx.o(.text)
    I2C1_EV_IRQHandler                       0x08000227   Thumb Code     0  startup_stm32f767xx.o(.text)
    I2C2_ER_IRQHandler                       0x08000227   Thumb Code     0  startup_stm32f767xx.o(.text)
    I2C2_EV_IRQHandler                       0x08000227   Thumb Code     0  startup_stm32f767xx.o(.text)
    I2C3_ER_IRQHandler                       0x08000227   Thumb Code     0  startup_stm32f767xx.o(.text)
    I2C3_EV_IRQHandler                       0x08000227   Thumb Code     0  startup_stm32f767xx.o(.text)
    I2C4_ER_IRQHandler                       0x08000227   Thumb Code     0  startup_stm32f767xx.o(.text)
    I2C4_EV_IRQHandler                       0x08000227   Thumb Code     0  startup_stm32f767xx.o(.text)
    JPEG_IRQHandler                          0x08000227   Thumb Code     0  startup_stm32f767xx.o(.text)
    LPTIM1_IRQHandler                        0x08000227   Thumb Code     0  startup_stm32f767xx.o(.text)
    LTDC_ER_IRQHandler                       0x08000227   Thumb Code     0  startup_stm32f767xx.o(.text)
    LTDC_IRQHandler                          0x08000227   Thumb Code     0  startup_stm32f767xx.o(.text)
    MDIOS_IRQHandler                         0x08000227   Thumb Code     0  startup_stm32f767xx.o(.text)
    OTG_FS_IRQHandler                        0x08000227   Thumb Code     0  startup_stm32f767xx.o(.text)
    OTG_FS_WKUP_IRQHandler                   0x08000227   Thumb Code     0  startup_stm32f767xx.o(.text)
    OTG_HS_EP1_IN_IRQHandler                 0x08000227   Thumb Code     0  startup_stm32f767xx.o(.text)
    OTG_HS_EP1_OUT_IRQHandler                0x08000227   Thumb Code     0  startup_stm32f767xx.o(.text)
    OTG_HS_IRQHandler                        0x08000227   Thumb Code     0  startup_stm32f767xx.o(.text)
    OTG_HS_WKUP_IRQHandler                   0x08000227   Thumb Code     0  startup_stm32f767xx.o(.text)
    PVD_IRQHandler                           0x08000227   Thumb Code     0  startup_stm32f767xx.o(.text)
    QUADSPI_IRQHandler                       0x08000227   Thumb Code     0  startup_stm32f767xx.o(.text)
    RCC_IRQHandler                           0x08000227   Thumb Code     0  startup_stm32f767xx.o(.text)
    RNG_IRQHandler                           0x08000227   Thumb Code     0  startup_stm32f767xx.o(.text)
    RTC_Alarm_IRQHandler                     0x08000227   Thumb Code     0  startup_stm32f767xx.o(.text)
    RTC_WKUP_IRQHandler                      0x08000227   Thumb Code     0  startup_stm32f767xx.o(.text)
    SAI1_IRQHandler                          0x08000227   Thumb Code     0  startup_stm32f767xx.o(.text)
    SAI2_IRQHandler                          0x08000227   Thumb Code     0  startup_stm32f767xx.o(.text)
    SDMMC1_IRQHandler                        0x08000227   Thumb Code     0  startup_stm32f767xx.o(.text)
    SDMMC2_IRQHandler                        0x08000227   Thumb Code     0  startup_stm32f767xx.o(.text)
    SPDIF_RX_IRQHandler                      0x08000227   Thumb Code     0  startup_stm32f767xx.o(.text)
    SPI1_IRQHandler                          0x08000227   Thumb Code     0  startup_stm32f767xx.o(.text)
    SPI2_IRQHandler                          0x08000227   Thumb Code     0  startup_stm32f767xx.o(.text)
    SPI3_IRQHandler                          0x08000227   Thumb Code     0  startup_stm32f767xx.o(.text)
    SPI4_IRQHandler                          0x08000227   Thumb Code     0  startup_stm32f767xx.o(.text)
    SPI5_IRQHandler                          0x08000227   Thumb Code     0  startup_stm32f767xx.o(.text)
    SPI6_IRQHandler                          0x08000227   Thumb Code     0  startup_stm32f767xx.o(.text)
    TAMP_STAMP_IRQHandler                    0x08000227   Thumb Code     0  startup_stm32f767xx.o(.text)
    TIM1_BRK_TIM9_IRQHandler                 0x08000227   Thumb Code     0  startup_stm32f767xx.o(.text)
    TIM1_CC_IRQHandler                       0x08000227   Thumb Code     0  startup_stm32f767xx.o(.text)
    TIM1_TRG_COM_TIM11_IRQHandler            0x08000227   Thumb Code     0  startup_stm32f767xx.o(.text)
    TIM1_UP_TIM10_IRQHandler                 0x08000227   Thumb Code     0  startup_stm32f767xx.o(.text)
    TIM2_IRQHandler                          0x08000227   Thumb Code     0  startup_stm32f767xx.o(.text)
    TIM3_IRQHandler                          0x08000227   Thumb Code     0  startup_stm32f767xx.o(.text)
    TIM4_IRQHandler                          0x08000227   Thumb Code     0  startup_stm32f767xx.o(.text)
    TIM5_IRQHandler                          0x08000227   Thumb Code     0  startup_stm32f767xx.o(.text)
    TIM6_DAC_IRQHandler                      0x08000227   Thumb Code     0  startup_stm32f767xx.o(.text)
    TIM7_IRQHandler                          0x08000227   Thumb Code     0  startup_stm32f767xx.o(.text)
    TIM8_BRK_TIM12_IRQHandler                0x08000227   Thumb Code     0  startup_stm32f767xx.o(.text)
    TIM8_CC_IRQHandler                       0x08000227   Thumb Code     0  startup_stm32f767xx.o(.text)
    TIM8_TRG_COM_TIM14_IRQHandler            0x08000227   Thumb Code     0  startup_stm32f767xx.o(.text)
    TIM8_UP_TIM13_IRQHandler                 0x08000227   Thumb Code     0  startup_stm32f767xx.o(.text)
    UART4_IRQHandler                         0x08000227   Thumb Code     0  startup_stm32f767xx.o(.text)
    UART5_IRQHandler                         0x08000227   Thumb Code     0  startup_stm32f767xx.o(.text)
    UART7_IRQHandler                         0x08000227   Thumb Code     0  startup_stm32f767xx.o(.text)
    UART8_IRQHandler                         0x08000227   Thumb Code     0  startup_stm32f767xx.o(.text)
    USART1_IRQHandler                        0x08000227   Thumb Code     0  startup_stm32f767xx.o(.text)
    USART2_IRQHandler                        0x08000227   Thumb Code     0  startup_stm32f767xx.o(.text)
    USART3_IRQHandler                        0x08000227   Thumb Code     0  startup_stm32f767xx.o(.text)
    USART6_IRQHandler                        0x08000227   Thumb Code     0  startup_stm32f767xx.o(.text)
    WWDG_IRQHandler                          0x08000227   Thumb Code     0  startup_stm32f767xx.o(.text)
    __aeabi_uldivmod                         0x08000231   Thumb Code    98  uldiv.o(.text)
    __aeabi_memcpy                           0x08000293   Thumb Code    36  memcpya.o(.text)
    __aeabi_memcpy4                          0x08000293   Thumb Code     0  memcpya.o(.text)
    __aeabi_memcpy8                          0x08000293   Thumb Code     0  memcpya.o(.text)
    __aeabi_memset                           0x080002b7   Thumb Code    14  memseta.o(.text)
    __aeabi_memset4                          0x080002b7   Thumb Code     0  memseta.o(.text)
    __aeabi_memset8                          0x080002b7   Thumb Code     0  memseta.o(.text)
    __aeabi_memclr                           0x080002c5   Thumb Code     4  memseta.o(.text)
    __aeabi_memclr4                          0x080002c5   Thumb Code     0  memseta.o(.text)
    __aeabi_memclr8                          0x080002c5   Thumb Code     0  memseta.o(.text)
    _memset$wrapper                          0x080002c9   Thumb Code    18  memseta.o(.text)
    __aeabi_llsl                             0x080002db   Thumb Code    30  llshl.o(.text)
    _ll_shift_l                              0x080002db   Thumb Code     0  llshl.o(.text)
    __aeabi_llsr                             0x080002f9   Thumb Code    32  llushr.o(.text)
    _ll_ushift_r                             0x080002f9   Thumb Code     0  llushr.o(.text)
    __scatterload                            0x08000319   Thumb Code    28  init.o(.text)
    __scatterload_rt2                        0x08000319   Thumb Code     0  init.o(.text)
    BusFault_Handler                         0x0800033d   Thumb Code     2  stm32f7xx_it.o(i.BusFault_Handler)
    DebugMon_Handler                         0x0800033f   Thumb Code     2  stm32f7xx_it.o(i.DebugMon_Handler)
    EXTI0_IRQHandler                         0x08000465   Thumb Code   114  stm32f7xx_it.o(i.EXTI0_IRQHandler)
    EXTI1_IRQHandler                         0x080004f1   Thumb Code     6  stm32f7xx_it.o(i.EXTI1_IRQHandler)
    HAL_Delay                                0x080004f9   Thumb Code    32  stm32f7xx_hal.o(i.HAL_Delay)
    HAL_ETH_Init                             0x0800051d   Thumb Code   454  stm32f7xx_hal_eth.o(i.HAL_ETH_Init)
    HAL_ETH_MspInit                          0x0800070d   Thumb Code   206  stm32f7xx_hal_msp.o(i.HAL_ETH_MspInit)
    HAL_ETH_ReadPHYRegister                  0x080007f5   Thumb Code   134  stm32f7xx_hal_eth.o(i.HAL_ETH_ReadPHYRegister)
    HAL_ETH_WritePHYRegister                 0x0800087d   Thumb Code   122  stm32f7xx_hal_eth.o(i.HAL_ETH_WritePHYRegister)
    HAL_GPIO_EXTI_Callback                   0x080008f7   Thumb Code     2  stm32f7xx_hal_gpio.o(i.HAL_GPIO_EXTI_Callback)
    HAL_GPIO_EXTI_IRQHandler                 0x080008f9   Thumb Code    18  stm32f7xx_hal_gpio.o(i.HAL_GPIO_EXTI_IRQHandler)
    HAL_GPIO_Init                            0x08000911   Thumb Code   418  stm32f7xx_hal_gpio.o(i.HAL_GPIO_Init)
    HAL_GPIO_TogglePin                       0x08000ae9   Thumb Code     8  stm32f7xx_hal_gpio.o(i.HAL_GPIO_TogglePin)
    HAL_GPIO_WritePin                        0x08000af1   Thumb Code    10  stm32f7xx_hal_gpio.o(i.HAL_GPIO_WritePin)
    HAL_GetTick                              0x08000afd   Thumb Code     6  stm32f7xx_hal.o(i.HAL_GetTick)
    HAL_IncTick                              0x08000b09   Thumb Code    12  stm32f7xx_hal.o(i.HAL_IncTick)
    HAL_Init                                 0x08000b19   Thumb Code    22  stm32f7xx_hal.o(i.HAL_Init)
    HAL_InitTick                             0x08000b31   Thumb Code    54  stm32f7xx_hal.o(i.HAL_InitTick)
    HAL_MspInit                              0x08000b71   Thumb Code    42  stm32f7xx_hal_msp.o(i.HAL_MspInit)
    HAL_NVIC_EnableIRQ                       0x08000ba1   Thumb Code    22  stm32f7xx_hal_cortex.o(i.HAL_NVIC_EnableIRQ)
    HAL_NVIC_SetPriority                     0x08000bb9   Thumb Code    60  stm32f7xx_hal_cortex.o(i.HAL_NVIC_SetPriority)
    HAL_NVIC_SetPriorityGrouping             0x08000bf9   Thumb Code    28  stm32f7xx_hal_cortex.o(i.HAL_NVIC_SetPriorityGrouping)
    HAL_PCDEx_ActivateLPM                    0x08000c1d   Thumb Code    34  stm32f7xx_hal_pcd_ex.o(i.HAL_PCDEx_ActivateLPM)
    HAL_PCD_Init                             0x08000c45   Thumb Code   208  stm32f7xx_hal_pcd.o(i.HAL_PCD_Init)
    HAL_PCD_MspInit                          0x08000d15   Thumb Code   130  stm32f7xx_hal_msp.o(i.HAL_PCD_MspInit)
    HAL_PWREx_EnableOverDrive                0x08000da1   Thumb Code   100  stm32f7xx_hal_pwr_ex.o(i.HAL_PWREx_EnableOverDrive)
    HAL_PWR_EnableBkUpAccess                 0x08000e0d   Thumb Code    12  stm32f7xx_hal_pwr.o(i.HAL_PWR_EnableBkUpAccess)
    HAL_RCCEx_PeriphCLKConfig                0x08000e1d   Thumb Code  1336  stm32f7xx_hal_rcc_ex.o(i.HAL_RCCEx_PeriphCLKConfig)
    HAL_RCC_ClockConfig                      0x08001359   Thumb Code   282  stm32f7xx_hal_rcc.o(i.HAL_RCC_ClockConfig)
    HAL_RCC_GetHCLKFreq                      0x08001485   Thumb Code     6  stm32f7xx_hal_rcc.o(i.HAL_RCC_GetHCLKFreq)
    HAL_RCC_GetPCLK1Freq                     0x08001491   Thumb Code    20  stm32f7xx_hal_rcc.o(i.HAL_RCC_GetPCLK1Freq)
    HAL_RCC_GetPCLK2Freq                     0x080014b1   Thumb Code    20  stm32f7xx_hal_rcc.o(i.HAL_RCC_GetPCLK2Freq)
    HAL_RCC_GetSysClockFreq                  0x080014d1   Thumb Code    88  stm32f7xx_hal_rcc.o(i.HAL_RCC_GetSysClockFreq)
    HAL_RCC_OscConfig                        0x08001531   Thumb Code   814  stm32f7xx_hal_rcc.o(i.HAL_RCC_OscConfig)
    HAL_SPI_GetState                         0x0800186d   Thumb Code     6  stm32f7xx_hal_spi.o(i.HAL_SPI_GetState)
    HAL_SPI_Init                             0x08001873   Thumb Code   196  stm32f7xx_hal_spi.o(i.HAL_SPI_Init)
    HAL_SPI_MspInit                          0x08001939   Thumb Code   116  stm32f7xx_hal_msp.o(i.HAL_SPI_MspInit)
    HAL_SPI_Receive                          0x080019bd   Thumb Code   370  stm32f7xx_hal_spi.o(i.HAL_SPI_Receive)
    HAL_SPI_Transmit                         0x08001b2f   Thumb Code   318  stm32f7xx_hal_spi.o(i.HAL_SPI_Transmit)
    HAL_SPI_TransmitReceive                  0x08001c6d   Thumb Code   554  stm32f7xx_hal_spi.o(i.HAL_SPI_TransmitReceive)
    HAL_SYSTICK_Config                       0x08001e97   Thumb Code    38  stm32f7xx_hal_cortex.o(i.HAL_SYSTICK_Config)
    HAL_UART_Init                            0x08001ebd   Thumb Code   106  stm32f7xx_hal_uart.o(i.HAL_UART_Init)
    HAL_UART_MspInit                         0x08001f29   Thumb Code    88  stm32f7xx_hal_msp.o(i.HAL_UART_MspInit)
    HardFault_Handler                        0x08001f8d   Thumb Code     2  stm32f7xx_it.o(i.HardFault_Handler)
    MemManage_Handler                        0x080021bd   Thumb Code     2  stm32f7xx_it.o(i.MemManage_Handler)
    NMI_Handler                              0x080021bf   Thumb Code     2  stm32f7xx_it.o(i.NMI_Handler)
    PendSV_Handler                           0x080021e3   Thumb Code     2  stm32f7xx_it.o(i.PendSV_Handler)
    SVC_Handler                              0x080023cd   Thumb Code     2  stm32f7xx_it.o(i.SVC_Handler)
    SysTick_Handler                          0x080023cf   Thumb Code     4  stm32f7xx_it.o(i.SysTick_Handler)
    SystemClock_Config                       0x080023d5   Thumb Code   156  main.o(i.SystemClock_Config)
    SystemInit                               0x0800247d   Thumb Code    68  system_stm32f7xx.o(i.SystemInit)
    UART_AdvFeatureConfig                    0x080024d1   Thumb Code   200  stm32f7xx_hal_uart.o(i.UART_AdvFeatureConfig)
    UART_CheckIdleState                      0x08002599   Thumb Code    64  stm32f7xx_hal_uart.o(i.UART_CheckIdleState)
    UART_SetConfig                           0x080025d9   Thumb Code   550  stm32f7xx_hal_uart.o(i.UART_SetConfig)
    UART_WaitOnFlagUntilTimeout              0x08002831   Thumb Code   100  stm32f7xx_hal_uart.o(i.UART_WaitOnFlagUntilTimeout)
    USB_CoreInit                             0x08002895   Thumb Code   106  stm32f7xx_ll_usb.o(i.USB_CoreInit)
    USB_DevDisconnect                        0x0800293d   Thumb Code    24  stm32f7xx_ll_usb.o(i.USB_DevDisconnect)
    USB_DevInit                              0x08002955   Thumb Code   370  stm32f7xx_ll_usb.o(i.USB_DevInit)
    USB_DisableGlobalInt                     0x08002ad9   Thumb Code    12  stm32f7xx_ll_usb.o(i.USB_DisableGlobalInt)
    USB_FlushRxFifo                          0x08002ae5   Thumb Code    28  stm32f7xx_ll_usb.o(i.USB_FlushRxFifo)
    USB_FlushTxFifo                          0x08002b05   Thumb Code    32  stm32f7xx_ll_usb.o(i.USB_FlushTxFifo)
    USB_SetCurrentMode                       0x08002b29   Thumb Code    46  stm32f7xx_ll_usb.o(i.USB_SetCurrentMode)
    UsageFault_Handler                       0x08002b57   Thumb Code     2  stm32f7xx_it.o(i.UsageFault_Handler)
    __scatterload_copy                       0x08002b59   Thumb Code    14  handlers.o(i.__scatterload_copy)
    __scatterload_null                       0x08002b67   Thumb Code     2  handlers.o(i.__scatterload_null)
    __scatterload_zeroinit                   0x08002b69   Thumb Code    14  handlers.o(i.__scatterload_zeroinit)
    bmi088_apply_config_file                 0x08002b79   Thumb Code    28  bmi088.o(i.bmi088_apply_config_file)
    bmi088_configure_data_synchronization    0x08002b99   Thumb Code   104  bmi088.o(i.bmi088_configure_data_synchronization)
    bmi088_get_synchronized_data             0x08002c01   Thumb Code   110  bmi088.o(i.bmi088_get_synchronized_data)
    bmi088_init                              0x08002c6f   Thumb Code    24  bmi088.o(i.bmi088_init)
    bmi088_set_data_sync_int_config          0x08002c87   Thumb Code    54  bmi088.o(i.bmi088_set_data_sync_int_config)
    bmi08a_get_regs                          0x08002cbd   Thumb Code    54  bmi08a.o(i.bmi08a_get_regs)
    bmi08a_init                              0x08002cf3   Thumb Code    80  bmi08a.o(i.bmi08a_init)
    bmi08a_set_int_config                    0x08002d43   Thumb Code   266  bmi08a.o(i.bmi08a_set_int_config)
    bmi08a_set_meas_conf                     0x08002e4d   Thumb Code   136  bmi08a.o(i.bmi08a_set_meas_conf)
    bmi08a_set_power_mode                    0x08002ed5   Thumb Code    96  bmi08a.o(i.bmi08a_set_power_mode)
    bmi08a_set_regs                          0x08002f35   Thumb Code    54  bmi08a.o(i.bmi08a_set_regs)
    bmi08a_soft_reset                        0x08002f6b   Thumb Code    64  bmi08a.o(i.bmi08a_soft_reset)
    bmi08a_write_config_file                 0x08002fab   Thumb Code   270  bmi08a.o(i.bmi08a_write_config_file)
    bmi08a_write_feature_config              0x080030b9   Thumb Code   112  bmi08a.o(i.bmi08a_write_feature_config)
    bmi08g_get_data                          0x08003129   Thumb Code    82  bmi08g.o(i.bmi08g_get_data)
    bmi08g_init                              0x0800317b   Thumb Code    50  bmi08g.o(i.bmi08g_init)
    bmi08g_set_int_config                    0x080031ad   Thumb Code    44  bmi08g.o(i.bmi08g_set_int_config)
    bmi08g_set_meas_conf                     0x080031d9   Thumb Code   138  bmi08g.o(i.bmi08g_set_meas_conf)
    bmi08g_set_power_mode                    0x08003263   Thumb Code    96  bmi08g.o(i.bmi08g_set_power_mode)
    free                                     0x080032c5   Thumb Code    76  malloc.o(i.free)
    main                                     0x08003399   Thumb Code   208  main.o(i.main)
    malloc                                   0x08003475   Thumb Code    92  malloc.o(i.malloc)
    stm32_spi_read                           0x080036c5   Thumb Code    76  bmi088_stm32.o(i.stm32_spi_read)
    stm32_spi_write                          0x08003719   Thumb Code    96  bmi088_stm32.o(i.stm32_spi_write)
    AHBPrescTable                            0x08003780   Data          16  system_stm32f7xx.o(.constdata)
    APBPrescTable                            0x08003790   Data           8  system_stm32f7xx.o(.constdata)
    bmi08x_config_file                       0x08003798   Data        6144  bmi08a.o(.constdata)
    Region$$Table$$Base                      0x08004f98   Number         0  anon$$obj.o(Region$$Table)
    Region$$Table$$Limit                     0x08004fb8   Number         0  anon$$obj.o(Region$$Table)
    sync_cfg                                 0x20000000   Data           1  main.o(.data)
    rslt                                     0x20000001   Data           1  main.o(.data)
    init_flag                                0x20000004   Data           4  main.o(.data)
    dev                                      0x20000008   Data          36  main.o(.data)
    user_accel_bmi088                        0x2000002c   Data           6  main.o(.data)
    user_gyro_bmi088                         0x20000032   Data           6  main.o(.data)
    count                                    0x20000038   Data           4  stm32f7xx_it.o(.data)
    uwTickFreq                               0x2000003c   Data           1  stm32f7xx_hal.o(.data)
    uwTickPrio                               0x20000040   Data           4  stm32f7xx_hal.o(.data)
    uwTick                                   0x20000044   Data           4  stm32f7xx_hal.o(.data)
    SystemCoreClock                          0x20000048   Data           4  system_stm32f7xx.o(.data)
    __microlib_freelist                      0x2000004c   Data           4  mvars.o(.data)
    __microlib_freelist_initialised          0x20000050   Data           4  mvars.o(.data)
    heth                                     0x20000054   Data          72  main.o(.bss)
    hspi1                                    0x2000009c   Data         100  main.o(.bss)
    huart3                                   0x20000100   Data         112  main.o(.bss)
    hpcd_USB_OTG_FS                          0x20000170   Data        1024  main.o(.bss)
    int_config                               0x20000570   Data          12  main.o(.bss)
    __heap_base                              0x20000580   Data           0  startup_stm32f767xx.o(HEAP)
    __heap_limit                             0x20000780   Data           0  startup_stm32f767xx.o(HEAP)
    __initial_sp                             0x20000b80   Data           0  startup_stm32f767xx.o(STACK)



==============================================================================

Memory Map of the image

  Image Entry point : 0x080001f9

  Load Region LR_IROM1 (Base: 0x08000000, Size: 0x0000500c, Max: 0x00200000, ABSOLUTE)

    Execution Region ER_IROM1 (Exec base: 0x08000000, Load base: 0x08000000, Size: 0x00004fb8, Max: 0x00200000, ABSOLUTE)

    Exec Addr    Load Addr    Size         Type   Attr      Idx    E Section Name        Object

    0x08000000   0x08000000   0x000001f8   Data   RO            3    RESET               startup_stm32f767xx.o
    0x080001f8   0x080001f8   0x00000000   Code   RO         3658  * .ARM.Collect$$$$00000000  mc_w.l(entry.o)
    0x080001f8   0x080001f8   0x00000004   Code   RO         3697    .ARM.Collect$$$$00000001  mc_w.l(entry2.o)
    0x080001fc   0x080001fc   0x00000004   Code   RO         3700    .ARM.Collect$$$$00000004  mc_w.l(entry5.o)
    0x08000200   0x08000200   0x00000000   Code   RO         3702    .ARM.Collect$$$$00000008  mc_w.l(entry7b.o)
    0x08000200   0x08000200   0x00000000   Code   RO         3704    .ARM.Collect$$$$0000000A  mc_w.l(entry8b.o)
    0x08000200   0x08000200   0x00000008   Code   RO         3705    .ARM.Collect$$$$0000000B  mc_w.l(entry9a.o)
    0x08000208   0x08000208   0x00000000   Code   RO         3707    .ARM.Collect$$$$0000000D  mc_w.l(entry10a.o)
    0x08000208   0x08000208   0x00000000   Code   RO         3709    .ARM.Collect$$$$0000000F  mc_w.l(entry11a.o)
    0x08000208   0x08000208   0x00000004   Code   RO         3698    .ARM.Collect$$$$00002712  mc_w.l(entry2.o)
    0x0800020c   0x0800020c   0x00000024   Code   RO            4    .text               startup_stm32f767xx.o
    0x08000230   0x08000230   0x00000062   Code   RO         3661    .text               mc_w.l(uldiv.o)
    0x08000292   0x08000292   0x00000024   Code   RO         3663    .text               mc_w.l(memcpya.o)
    0x080002b6   0x080002b6   0x00000024   Code   RO         3665    .text               mc_w.l(memseta.o)
    0x080002da   0x080002da   0x0000001e   Code   RO         3711    .text               mc_w.l(llshl.o)
    0x080002f8   0x080002f8   0x00000020   Code   RO         3713    .text               mc_w.l(llushr.o)
    0x08000318   0x08000318   0x00000024   Code   RO         3717    .text               mc_w.l(init.o)
    0x0800033c   0x0800033c   0x00000002   Code   RO          209    i.BusFault_Handler  stm32f7xx_it.o
    0x0800033e   0x0800033e   0x00000002   Code   RO          210    i.DebugMon_Handler  stm32f7xx_it.o
    0x08000340   0x08000340   0x00000124   Code   RO          508    i.ETH_MACDMAConfig  stm32f7xx_hal_eth.o
    0x08000464   0x08000464   0x0000008c   Code   RO          211    i.EXTI0_IRQHandler  stm32f7xx_it.o
    0x080004f0   0x080004f0   0x00000006   Code   RO          212    i.EXTI1_IRQHandler  stm32f7xx_it.o
    0x080004f6   0x080004f6   0x00000002   PAD
    0x080004f8   0x080004f8   0x00000024   Code   RO         2640    i.HAL_Delay         stm32f7xx_hal.o
    0x0800051c   0x0800051c   0x000001f0   Code   RO          519    i.HAL_ETH_Init      stm32f7xx_hal_eth.o
    0x0800070c   0x0800070c   0x000000e8   Code   RO          301    i.HAL_ETH_MspInit   stm32f7xx_hal_msp.o
    0x080007f4   0x080007f4   0x00000086   Code   RO          522    i.HAL_ETH_ReadPHYRegister  stm32f7xx_hal_eth.o
    0x0800087a   0x0800087a   0x00000002   PAD
    0x0800087c   0x0800087c   0x0000007a   Code   RO          528    i.HAL_ETH_WritePHYRegister  stm32f7xx_hal_eth.o
    0x080008f6   0x080008f6   0x00000002   Code   RO         2205    i.HAL_GPIO_EXTI_Callback  stm32f7xx_hal_gpio.o
    0x080008f8   0x080008f8   0x00000018   Code   RO         2206    i.HAL_GPIO_EXTI_IRQHandler  stm32f7xx_hal_gpio.o
    0x08000910   0x08000910   0x000001d8   Code   RO         2207    i.HAL_GPIO_Init     stm32f7xx_hal_gpio.o
    0x08000ae8   0x08000ae8   0x00000008   Code   RO         2210    i.HAL_GPIO_TogglePin  stm32f7xx_hal_gpio.o
    0x08000af0   0x08000af0   0x0000000a   Code   RO         2211    i.HAL_GPIO_WritePin  stm32f7xx_hal_gpio.o
    0x08000afa   0x08000afa   0x00000002   PAD
    0x08000afc   0x08000afc   0x0000000c   Code   RO         2650    i.HAL_GetTick       stm32f7xx_hal.o
    0x08000b08   0x08000b08   0x00000010   Code   RO         2656    i.HAL_IncTick       stm32f7xx_hal.o
    0x08000b18   0x08000b18   0x00000016   Code   RO         2657    i.HAL_Init          stm32f7xx_hal.o
    0x08000b2e   0x08000b2e   0x00000002   PAD
    0x08000b30   0x08000b30   0x00000040   Code   RO         2658    i.HAL_InitTick      stm32f7xx_hal.o
    0x08000b70   0x08000b70   0x00000030   Code   RO          302    i.HAL_MspInit       stm32f7xx_hal_msp.o
    0x08000ba0   0x08000ba0   0x00000016   Code   RO          377    i.HAL_NVIC_EnableIRQ  stm32f7xx_hal_cortex.o
    0x08000bb6   0x08000bb6   0x00000002   PAD
    0x08000bb8   0x08000bb8   0x00000040   Code   RO          383    i.HAL_NVIC_SetPriority  stm32f7xx_hal_cortex.o
    0x08000bf8   0x08000bf8   0x00000024   Code   RO          384    i.HAL_NVIC_SetPriorityGrouping  stm32f7xx_hal_cortex.o
    0x08000c1c   0x08000c1c   0x00000028   Code   RO         1512    i.HAL_PCDEx_ActivateLPM  stm32f7xx_hal_pcd_ex.o
    0x08000c44   0x08000c44   0x000000d0   Code   RO         1318    i.HAL_PCD_Init      stm32f7xx_hal_pcd.o
    0x08000d14   0x08000d14   0x0000008c   Code   RO          304    i.HAL_PCD_MspInit   stm32f7xx_hal_msp.o
    0x08000da0   0x08000da0   0x0000006c   Code   RO         2547    i.HAL_PWREx_EnableOverDrive  stm32f7xx_hal_pwr_ex.o
    0x08000e0c   0x08000e0c   0x00000010   Code   RO         2424    i.HAL_PWR_EnableBkUpAccess  stm32f7xx_hal_pwr.o
    0x08000e1c   0x08000e1c   0x0000053c   Code   RO         1968    i.HAL_RCCEx_PeriphCLKConfig  stm32f7xx_hal_rcc_ex.o
    0x08001358   0x08001358   0x0000012c   Code   RO         1861    i.HAL_RCC_ClockConfig  stm32f7xx_hal_rcc.o
    0x08001484   0x08001484   0x0000000c   Code   RO         1866    i.HAL_RCC_GetHCLKFreq  stm32f7xx_hal_rcc.o
    0x08001490   0x08001490   0x00000020   Code   RO         1868    i.HAL_RCC_GetPCLK1Freq  stm32f7xx_hal_rcc.o
    0x080014b0   0x080014b0   0x00000020   Code   RO         1869    i.HAL_RCC_GetPCLK2Freq  stm32f7xx_hal_rcc.o
    0x080014d0   0x080014d0   0x00000060   Code   RO         1870    i.HAL_RCC_GetSysClockFreq  stm32f7xx_hal_rcc.o
    0x08001530   0x08001530   0x0000033c   Code   RO         1873    i.HAL_RCC_OscConfig  stm32f7xx_hal_rcc.o
    0x0800186c   0x0800186c   0x00000006   Code   RO          664    i.HAL_SPI_GetState  stm32f7xx_hal_spi.o
    0x08001872   0x08001872   0x000000c4   Code   RO          666    i.HAL_SPI_Init      stm32f7xx_hal_spi.o
    0x08001936   0x08001936   0x00000002   PAD
    0x08001938   0x08001938   0x00000084   Code   RO          306    i.HAL_SPI_MspInit   stm32f7xx_hal_msp.o
    0x080019bc   0x080019bc   0x00000172   Code   RO          669    i.HAL_SPI_Receive   stm32f7xx_hal_spi.o
    0x08001b2e   0x08001b2e   0x0000013e   Code   RO          674    i.HAL_SPI_Transmit  stm32f7xx_hal_spi.o
    0x08001c6c   0x08001c6c   0x0000022a   Code   RO          675    i.HAL_SPI_TransmitReceive  stm32f7xx_hal_spi.o
    0x08001e96   0x08001e96   0x00000026   Code   RO          388    i.HAL_SYSTICK_Config  stm32f7xx_hal_cortex.o
    0x08001ebc   0x08001ebc   0x0000006a   Code   RO         1037    i.HAL_UART_Init     stm32f7xx_hal_uart.o
    0x08001f26   0x08001f26   0x00000002   PAD
    0x08001f28   0x08001f28   0x00000064   Code   RO          308    i.HAL_UART_MspInit  stm32f7xx_hal_msp.o
    0x08001f8c   0x08001f8c   0x00000002   Code   RO          213    i.HardFault_Handler  stm32f7xx_it.o
    0x08001f8e   0x08001f8e   0x00000002   PAD
    0x08001f90   0x08001f90   0x00000048   Code   RO           14    i.MX_ETH_Init       main.o
    0x08001fd8   0x08001fd8   0x00000140   Code   RO           15    i.MX_GPIO_Init      main.o
    0x08002118   0x08002118   0x00000044   Code   RO           16    i.MX_SPI1_Init      main.o
    0x0800215c   0x0800215c   0x00000030   Code   RO           17    i.MX_USART3_UART_Init  main.o
    0x0800218c   0x0800218c   0x00000030   Code   RO           18    i.MX_USB_OTG_FS_PCD_Init  main.o
    0x080021bc   0x080021bc   0x00000002   Code   RO          214    i.MemManage_Handler  stm32f7xx_it.o
    0x080021be   0x080021be   0x00000002   Code   RO          215    i.NMI_Handler       stm32f7xx_it.o
    0x080021c0   0x080021c0   0x00000022   Code   RO          390    i.NVIC_SetPriority  stm32f7xx_hal_cortex.o
    0x080021e2   0x080021e2   0x00000002   Code   RO          216    i.PendSV_Handler    stm32f7xx_it.o
    0x080021e4   0x080021e4   0x00000074   Code   RO          703    i.SPI_EndRxTransaction  stm32f7xx_hal_spi.o
    0x08002258   0x08002258   0x00000048   Code   RO          704    i.SPI_EndRxTxTransaction  stm32f7xx_hal_spi.o
    0x080022a0   0x080022a0   0x000000a0   Code   RO          709    i.SPI_WaitFifoStateUntilTimeout  stm32f7xx_hal_spi.o
    0x08002340   0x08002340   0x0000008c   Code   RO          710    i.SPI_WaitFlagStateUntilTimeout  stm32f7xx_hal_spi.o
    0x080023cc   0x080023cc   0x00000002   Code   RO          217    i.SVC_Handler       stm32f7xx_it.o
    0x080023ce   0x080023ce   0x00000004   Code   RO          218    i.SysTick_Handler   stm32f7xx_it.o
    0x080023d2   0x080023d2   0x00000002   PAD
    0x080023d4   0x080023d4   0x000000a8   Code   RO           19    i.SystemClock_Config  main.o
    0x0800247c   0x0800247c   0x00000054   Code   RO         3311    i.SystemInit        system_stm32f7xx.o
    0x080024d0   0x080024d0   0x000000c8   Code   RO         1050    i.UART_AdvFeatureConfig  stm32f7xx_hal_uart.o
    0x08002598   0x08002598   0x00000040   Code   RO         1051    i.UART_CheckIdleState  stm32f7xx_hal_uart.o
    0x080025d8   0x080025d8   0x00000258   Code   RO         1061    i.UART_SetConfig    stm32f7xx_hal_uart.o
    0x08002830   0x08002830   0x00000064   Code   RO         1062    i.UART_WaitOnFlagUntilTimeout  stm32f7xx_hal_uart.o
    0x08002894   0x08002894   0x00000070   Code   RO         1571    i.USB_CoreInit      stm32f7xx_ll_usb.o
    0x08002904   0x08002904   0x00000038   Code   RO         1572    i.USB_CoreReset     stm32f7xx_ll_usb.o
    0x0800293c   0x0800293c   0x00000018   Code   RO         1577    i.USB_DevDisconnect  stm32f7xx_ll_usb.o
    0x08002954   0x08002954   0x00000184   Code   RO         1578    i.USB_DevInit       stm32f7xx_ll_usb.o
    0x08002ad8   0x08002ad8   0x0000000c   Code   RO         1579    i.USB_DisableGlobalInt  stm32f7xx_ll_usb.o
    0x08002ae4   0x08002ae4   0x00000020   Code   RO         1588    i.USB_FlushRxFifo   stm32f7xx_ll_usb.o
    0x08002b04   0x08002b04   0x00000024   Code   RO         1589    i.USB_FlushTxFifo   stm32f7xx_ll_usb.o
    0x08002b28   0x08002b28   0x0000002e   Code   RO         1607    i.USB_SetCurrentMode  stm32f7xx_ll_usb.o
    0x08002b56   0x08002b56   0x00000002   Code   RO          219    i.UsageFault_Handler  stm32f7xx_it.o
    0x08002b58   0x08002b58   0x0000000e   Code   RO         3721    i.__scatterload_copy  mc_w.l(handlers.o)
    0x08002b66   0x08002b66   0x00000002   Code   RO         3722    i.__scatterload_null  mc_w.l(handlers.o)
    0x08002b68   0x08002b68   0x0000000e   Code   RO         3723    i.__scatterload_zeroinit  mc_w.l(handlers.o)
    0x08002b76   0x08002b76   0x00000002   PAD
    0x08002b78   0x08002b78   0x00000020   Code   RO         3383    i.bmi088_apply_config_file  bmi088.o
    0x08002b98   0x08002b98   0x00000068   Code   RO         3385    i.bmi088_configure_data_synchronization  bmi088.o
    0x08002c00   0x08002c00   0x0000006e   Code   RO         3386    i.bmi088_get_synchronized_data  bmi088.o
    0x08002c6e   0x08002c6e   0x00000018   Code   RO         3387    i.bmi088_init       bmi088.o
    0x08002c86   0x08002c86   0x00000036   Code   RO         3388    i.bmi088_set_data_sync_int_config  bmi088.o
    0x08002cbc   0x08002cbc   0x00000036   Code   RO         3527    i.bmi08a_get_regs   bmi08a.o
    0x08002cf2   0x08002cf2   0x00000050   Code   RO         3531    i.bmi08a_init       bmi08a.o
    0x08002d42   0x08002d42   0x0000010a   Code   RO         3533    i.bmi08a_set_int_config  bmi08a.o
    0x08002e4c   0x08002e4c   0x00000088   Code   RO         3534    i.bmi08a_set_meas_conf  bmi08a.o
    0x08002ed4   0x08002ed4   0x00000060   Code   RO         3535    i.bmi08a_set_power_mode  bmi08a.o
    0x08002f34   0x08002f34   0x00000036   Code   RO         3536    i.bmi08a_set_regs   bmi08a.o
    0x08002f6a   0x08002f6a   0x00000040   Code   RO         3537    i.bmi08a_soft_reset  bmi08a.o
    0x08002faa   0x08002faa   0x0000010e   Code   RO         3538    i.bmi08a_write_config_file  bmi08a.o
    0x080030b8   0x080030b8   0x00000070   Code   RO         3539    i.bmi08a_write_feature_config  bmi08a.o
    0x08003128   0x08003128   0x00000052   Code   RO         3431    i.bmi08g_get_data   bmi08g.o
    0x0800317a   0x0800317a   0x00000032   Code   RO         3435    i.bmi08g_init       bmi08g.o
    0x080031ac   0x080031ac   0x0000002c   Code   RO         3437    i.bmi08g_set_int_config  bmi08g.o
    0x080031d8   0x080031d8   0x0000008a   Code   RO         3438    i.bmi08g_set_meas_conf  bmi08g.o
    0x08003262   0x08003262   0x00000060   Code   RO         3439    i.bmi08g_set_power_mode  bmi08g.o
    0x080032c2   0x080032c2   0x00000002   PAD
    0x080032c4   0x080032c4   0x00000050   Code   RO         3669    i.free              mc_w.l(malloc.o)
    0x08003314   0x08003314   0x00000024   Code   RO         3442    i.get_regs          bmi08g.o
    0x08003338   0x08003338   0x00000060   Code   RO         3540    i.get_regs          bmi08a.o
    0x08003398   0x08003398   0x000000dc   Code   RO           20    i.main              main.o
    0x08003474   0x08003474   0x0000006c   Code   RO         3670    i.malloc            mc_w.l(malloc.o)
    0x080034e0   0x080034e0   0x00000018   Code   RO         3389    i.null_ptr_check    bmi088.o
    0x080034f8   0x080034f8   0x00000018   Code   RO         3443    i.null_ptr_check    bmi08g.o
    0x08003510   0x08003510   0x00000018   Code   RO         3541    i.null_ptr_check    bmi08a.o
    0x08003528   0x08003528   0x000000d0   Code   RO         3444    i.set_gyro_data_ready_int  bmi08g.o
    0x080035f8   0x080035f8   0x00000084   Code   RO         3542    i.set_int_pin_config  bmi08a.o
    0x0800367c   0x0800367c   0x00000024   Code   RO         3445    i.set_regs          bmi08g.o
    0x080036a0   0x080036a0   0x00000024   Code   RO         3543    i.set_regs          bmi08a.o
    0x080036c4   0x080036c4   0x00000054   Code   RO         3348    i.stm32_spi_read    bmi088_stm32.o
    0x08003718   0x08003718   0x00000068   Code   RO         3349    i.stm32_spi_write   bmi088_stm32.o
    0x08003780   0x08003780   0x00000010   Data   RO         3312    .constdata          system_stm32f7xx.o
    0x08003790   0x08003790   0x00000008   Data   RO         3313    .constdata          system_stm32f7xx.o
    0x08003798   0x08003798   0x00001800   Data   RO         3545    .constdata          bmi08a.o
    0x08004f98   0x08004f98   0x00000020   Data   RO         3719    Region$$Table       anon$$obj.o


    Execution Region RW_IRAM1 (Exec base: 0x20000000, Load base: 0x08004fb8, Size: 0x00000b80, Max: 0x00080000, ABSOLUTE)

    Exec Addr    Load Addr    Size         Type   Attr      Idx    E Section Name        Object

    0x20000000   0x08004fb8   0x0000002c   Data   RW           22    .data               main.o
    0x2000002c   0x08004fe4   0x00000006   Data   RW           25    .data               main.o
    0x20000032   0x08004fea   0x00000006   Data   RW           26    .data               main.o
    0x20000038   0x08004ff0   0x00000004   Data   RW          220    .data               stm32f7xx_it.o
    0x2000003c   0x08004ff4   0x0000000c   Data   RW         2664    .data               stm32f7xx_hal.o
    0x20000048   0x08005000   0x00000004   Data   RW         3314    .data               system_stm32f7xx.o
    0x2000004c   0x08005004   0x00000004   Data   RW         3715    .data               mc_w.l(mvars.o)
    0x20000050   0x08005008   0x00000004   Data   RW         3716    .data               mc_w.l(mvars.o)
    0x20000054        -       0x00000528   Zero   RW           21    .bss                main.o
    0x2000057c   0x0800500c   0x00000004   PAD
    0x20000580        -       0x00000200   Zero   RW            2    HEAP                startup_stm32f767xx.o
    0x20000780        -       0x00000400   Zero   RW            1    STACK               startup_stm32f767xx.o


==============================================================================

Image component sizes


      Code (inc. data)   RO Data    RW Data    ZI Data      Debug   Object Name

       348          4          0          0          0       5743   bmi088.o
       188         16          0          0          0       2383   bmi088_stm32.o
      1420          0       6144          0          0      15625   bmi08a.o
       714          0          0          0          0       9107   bmi08g.o
       944         82          0         56       1320     893966   main.o
        36          8        504          0       1536        984   startup_stm32f767xx.o
       150         24          0         12          0       5185   stm32f7xx_hal.o
       194         12          0          0          0      36547   stm32f7xx_hal_cortex.o
      1044         66          0          0          0       6184   stm32f7xx_hal_eth.o
       516         60          0          0          0       5397   stm32f7xx_hal_gpio.o
       652         70          0          0          0       4947   stm32f7xx_hal_msp.o
       208          0          0          0          0       1991   stm32f7xx_hal_pcd.o
        40          6          0          0          0       1352   stm32f7xx_hal_pcd_ex.o
        16          4          0          0          0        719   stm32f7xx_hal_pwr.o
       108          8          0          0          0       1612   stm32f7xx_hal_pwr_ex.o
      1300         70          0          0          0       6796   stm32f7xx_hal_rcc.o
      1340         22          0          0          0       2668   stm32f7xx_hal_rcc_ex.o
      1932          0          0          0          0      11293   stm32f7xx_hal_spi.o
      1070         70          0          0          0       6093   stm32f7xx_hal_uart.o
       166         26          0          4          0       7416   stm32f7xx_it.o
       706         38          0          0          0       8496   stm32f7xx_ll_usb.o
        84         16         24          4          0       1743   system_stm32f7xx.o

    ----------------------------------------------------------------------
     13196        602       6704         76       2860    1036247   Object Totals
         0          0         32          0          0          0   (incl. Generated)
        20          0          0          0          4          0   (incl. Padding)

    ----------------------------------------------------------------------

      Code (inc. data)   RO Data    RW Data    ZI Data      Debug   Library Member Name

         0          0          0          0          0          0   entry.o
         0          0          0          0          0          0   entry10a.o
         0          0          0          0          0          0   entry11a.o
         8          4          0          0          0          0   entry2.o
         4          0          0          0          0          0   entry5.o
         0          0          0          0          0          0   entry7b.o
         0          0          0          0          0          0   entry8b.o
         8          4          0          0          0          0   entry9a.o
        30          0          0          0          0          0   handlers.o
        36          8          0          0          0         68   init.o
        30          0          0          0          0         68   llshl.o
        32          0          0          0          0         68   llushr.o
       188         20          0          0          0        160   malloc.o
        36          0          0          0          0         68   memcpya.o
        36          0          0          0          0        108   memseta.o
         0          0          0          8          0          0   mvars.o
        98          0          0          0          0         92   uldiv.o

    ----------------------------------------------------------------------
       508         36          0          8          0        632   Library Totals
         2          0          0          0          0          0   (incl. Padding)

    ----------------------------------------------------------------------

      Code (inc. data)   RO Data    RW Data    ZI Data      Debug   Library Name

       506         36          0          8          0        632   mc_w.l

    ----------------------------------------------------------------------
       508         36          0          8          0        632   Library Totals

    ----------------------------------------------------------------------

==============================================================================


      Code (inc. data)   RO Data    RW Data    ZI Data      Debug   

     13704        638       6704         84       2860    1027023   Grand Totals
     13704        638       6704         84       2860    1027023   ELF Image Totals
     13704        638       6704         84          0          0   ROM Totals

==============================================================================

    Total RO  Size (Code + RO Data)                20408 (  19.93kB)
    Total RW  Size (RW Data + ZI Data)              2944 (   2.88kB)
    Total ROM Size (Code + RO Data + RW Data)      20492 (  20.01kB)

==============================================================================

