Component: ARM Compiler 5.06 update 6 (build 750) Tool: armlink [4d35ed]

==============================================================================

Section Cross References

    main.o(i.SystemClock_Config) refers to memseta.o(.text) for __aeabi_memclr4
    main.o(i.SystemClock_Config) refers to stm32f4xx_hal_rcc.o(i.HAL_RCC_OscConfig) for HAL_RCC_OscConfig
    main.o(i.SystemClock_Config) refers to stm32f4xx_hal_rcc.o(i.HAL_RCC_ClockConfig) for HAL_RCC_ClockConfig
    main.o(i.main) refers to stm32f4xx_hal.o(i.HAL_Init) for HAL_Init
    main.o(i.main) refers to main.o(i.SystemClock_Config) for SystemClock_Config
    main.o(i.main) refers to gpio.o(i.MX_GPIO_Init) for MX_GPIO_Init
    main.o(i.main) refers to adc.o(i.MX_ADC1_Init) for MX_ADC1_Init
    main.o(i.main) refers to can.o(i.MX_CAN1_Init) for MX_CAN1_Init
    main.o(i.main) refers to spi.o(i.MX_SPI1_Init) for MX_SPI1_Init
    main.o(i.main) refers to usart.o(i.MX_USART1_UART_Init) for MX_USART1_UART_Init
    main.o(i.main) refers to bmi088.o(i.bmi088_init) for bmi088_init
    main.o(i.main) refers to bmi08a.o(i.bmi08a_soft_reset) for bmi08a_soft_reset
    main.o(i.main) refers to bmi08a.o(i.bmi08a_set_power_mode) for bmi08a_set_power_mode
    main.o(i.main) refers to bmi08g.o(i.bmi08g_set_power_mode) for bmi08g_set_power_mode
    main.o(i.main) refers to bmi088.o(i.bmi088_apply_config_file) for bmi088_apply_config_file
    main.o(i.main) refers to bmi088.o(i.bmi088_configure_data_synchronization) for bmi088_configure_data_synchronization
    main.o(i.main) refers to bmi088.o(i.bmi088_set_data_sync_int_config) for bmi088_set_data_sync_int_config
    main.o(i.main) refers to freertos.o(i.MX_FREERTOS_Init) for MX_FREERTOS_Init
==============================================================================

Removing Unused input sections from the image.

    Removing main.o(.rev16_text), (4 bytes).
    Removing main.o(.revsh_text), (4 bytes).
    Removing main.o(.rrx_text), (6 bytes).
    Removing main.o(.data), (1 bytes).
    Removing main.o(.data), (4 bytes).
    Removing gpio.o(.rev16_text), (4 bytes).
    Removing gpio.o(.revsh_text), (4 bytes).
    Removing gpio.o(.rrx_text), (6 bytes).
    Removing adc.o(.rev16_text), (4 bytes).
    Removing adc.o(.revsh_text), (4 bytes).
    Removing adc.o(.rrx_text), (6 bytes).
    Removing adc.o(i.HAL_ADC_MspDeInit), (28 bytes).
    Removing can.o(.rev16_text), (4 bytes).
    Removing can.o(.revsh_text), (4 bytes).
    Removing can.o(.rrx_text), (6 bytes).
    Removing can.o(i.HAL_CAN_MspDeInit), (44 bytes).
    Removing freertos.o(.rev16_text), (4 bytes).
    Removing freertos.o(.revsh_text), (4 bytes).
==============================================================================

Image Symbol Table

    Local Symbols

    Symbol Name                              Value     Ov Type        Size  Object(Section)

    ../Drivers/STM32F4xx_HAL_Driver/Src/stm32f4xx_hal.c 0x00000000   Number         0  stm32f4xx_hal.o ABSOLUTE
    ../Drivers/STM32F4xx_HAL_Driver/Src/stm32f4xx_hal_adc.c 0x00000000   Number         0  stm32f4xx_hal_adc.o ABSOLUTE
    ../Drivers/STM32F4xx_HAL_Driver/Src/stm32f4xx_hal_adc_ex.c 0x00000000   Number         0  stm32f4xx_hal_adc_ex.o ABSOLUTE
    ../Drivers/STM32F4xx_HAL_Driver/Src/stm32f4xx_hal_can.c 0x00000000   Number         0  stm32f4xx_hal_can.o ABSOLUTE
    ../Drivers/STM32F4xx_HAL_Driver/Src/stm32f4xx_hal_cortex.c 0x00000000   Number         0  stm32f4xx_hal_cortex.o ABSOLUTE
    ../Drivers/STM32F4xx_HAL_Driver/Src/stm32f4xx_hal_dma.c 0x00000000   Number         0  stm32f4xx_hal_dma.o ABSOLUTE
    ../Drivers/STM32F4xx_HAL_Driver/Src/stm32f4xx_hal_dma_ex.c 0x00000000   Number         0  stm32f4xx_hal_dma_ex.o ABSOLUTE
    ../Drivers/STM32F4xx_HAL_Driver/Src/stm32f4xx_hal_exti.c 0x00000000   Number         0  stm32f4xx_hal_exti.o ABSOLUTE
    ../Drivers/STM32F4xx_HAL_Driver/Src/stm32f4xx_hal_flash.c 0x00000000   Number         0  stm32f4xx_hal_flash.o ABSOLUTE
    ../Drivers/STM32F4xx_HAL_Driver/Src/stm32f4xx_hal_flash_ex.c 0x00000000   Number         0  stm32f4xx_hal_flash_ex.o ABSOLUTE
    ../Drivers/STM32F4xx_HAL_Driver/Src/stm32f4xx_hal_flash_ramfunc.c 0x00000000   Number         0  stm32f4xx_hal_flash_ramfunc.o ABSOLUTE
    ../Drivers/STM32F4xx_HAL_Driver/Src/stm32f4xx_hal_gpio.c 0x00000000   Number         0  stm32f4xx_hal_gpio.o ABSOLUTE
    ../Drivers/STM32F4xx_HAL_Driver/Src/stm32f4xx_hal_pwr.c 0x00000000   Number         0  stm32f4xx_hal_pwr.o ABSOLUTE
    ../Drivers/STM32F4xx_HAL_Driver/Src/stm32f4xx_hal_pwr_ex.c 0x00000000   Number         0  stm32f4xx_hal_pwr_ex.o ABSOLUTE
    ../Drivers/STM32F4xx_HAL_Driver/Src/stm32f4xx_hal_rcc.c 0x00000000   Number         0  stm32f4xx_hal_rcc.o ABSOLUTE
    ../Drivers/STM32F4xx_HAL_Driver/Src/stm32f4xx_hal_rcc_ex.c 0x00000000   Number         0  stm32f4xx_hal_rcc_ex.o ABSOLUTE
    ../Drivers/STM32F4xx_HAL_Driver/Src/stm32f4xx_hal_spi.c 0x00000000   Number         0  stm32f4xx_hal_spi.o ABSOLUTE
    ../Drivers/STM32F4xx_HAL_Driver/Src/stm32f4xx_hal_tim.c 0x00000000   Number         0  stm32f4xx_hal_tim.o ABSOLUTE
    ../Drivers/STM32F4xx_HAL_Driver/Src/stm32f4xx_hal_tim_ex.c 0x00000000   Number         0  stm32f4xx_hal_tim_ex.o ABSOLUTE
    ../Drivers/STM32F4xx_HAL_Driver/Src/stm32f4xx_hal_uart.c 0x00000000   Number         0  stm32f4xx_hal_uart.o ABSOLUTE
    ../Middlewares/Third_Party/FreeRTOS/Source/CMSIS_RTOS/cmsis_os.c 0x00000000   Number         0  cmsis_os.o ABSOLUTE
    ../Middlewares/Third_Party/FreeRTOS/Source/croutine.c 0x00000000   Number         0  croutine.o ABSOLUTE
    ../Middlewares/Third_Party/FreeRTOS/Source/event_groups.c 0x00000000   Number         0  event_groups.o ABSOLUTE
    ../Middlewares/Third_Party/FreeRTOS/Source/list.c 0x00000000   Number         0  list.o ABSOLUTE
    ../Middlewares/Third_Party/FreeRTOS/Source/portable/MemMang/heap_4.c 0x00000000   Number         0  heap_4.o ABSOLUTE
    ../Middlewares/Third_Party/FreeRTOS/Source/portable/RVDS/ARM_CM4F/port.c 0x00000000   Number         0  port.o ABSOLUTE
    ../Middlewares/Third_Party/FreeRTOS/Source/queue.c 0x00000000   Number         0  queue.o ABSOLUTE
    ../Middlewares/Third_Party/FreeRTOS/Source/stream_buffer.c 0x00000000   Number         0  stream_buffer.o ABSOLUTE
    ../Middlewares/Third_Party/FreeRTOS/Source/tasks.c 0x00000000   Number         0  tasks.o ABSOLUTE
    ../Middlewares/Third_Party/FreeRTOS/Source/timers.c 0x00000000   Number         0  timers.o ABSOLUTE
    ../Src/adc.c                             0x00000000   Number         0  adc.o ABSOLUTE
    ../Src/can.c                             0x00000000   Number         0  can.o ABSOLUTE
    ../Src/freertos.c                        0x00000000   Number         0  freertos.o ABSOLUTE
    ../Src/gpio.c                            0x00000000   Number         0  gpio.o ABSOLUTE
    ../Src/main.c                            0x00000000   Number         0  main.o ABSOLUTE
    ../Src/spi.c                             0x00000000   Number         0  spi.o ABSOLUTE
    ../Src/stm32f4xx_hal_msp.c               0x00000000   Number         0  stm32f4xx_hal_msp.o ABSOLUTE
    ../Src/stm32f4xx_it.c                    0x00000000   Number         0  stm32f4xx_it.o ABSOLUTE
    ../Src/system_stm32f4xx.c                0x00000000   Number         0  system_stm32f4xx.o ABSOLUTE
    ../Src/usart.c                           0x00000000   Number         0  usart.o ABSOLUTE
    ../clib/microlib/division.c              0x00000000   Number         0  uldiv.o ABSOLUTE
    ../clib/microlib/init/entry.s            0x00000000   Number         0  entry11a.o ABSOLUTE
    ../clib/microlib/init/entry.s            0x00000000   Number         0  entry11b.o ABSOLUTE
    ../clib/microlib/init/entry.s            0x00000000   Number         0  entry7a.o ABSOLUTE
    ../clib/microlib/init/entry.s            0x00000000   Number         0  entry7b.o ABSOLUTE
    ../clib/microlib/init/entry.s            0x00000000   Number         0  entry.o ABSOLUTE
    ../clib/microlib/init/entry.s            0x00000000   Number         0  entry8a.o ABSOLUTE
    ../clib/microlib/init/entry.s            0x00000000   Number         0  entry9b.o ABSOLUTE
    ../clib/microlib/init/entry.s            0x00000000   Number         0  entry10a.o ABSOLUTE
    ../clib/microlib/init/entry.s            0x00000000   Number         0  entry9a.o ABSOLUTE
    ../clib/microlib/init/entry.s            0x00000000   Number         0  entry5.o ABSOLUTE
    ../clib/microlib/init/entry.s            0x00000000   Number         0  entry10b.o ABSOLUTE
    ../clib/microlib/init/entry.s            0x00000000   Number         0  entry2.o ABSOLUTE
    ../clib/microlib/init/entry.s            0x00000000   Number         0  entry8b.o ABSOLUTE
    ../clib/microlib/longlong.c              0x00000000   Number         0  llshl.o ABSOLUTE
    ../clib/microlib/longlong.c              0x00000000   Number         0  llushr.o ABSOLUTE
    ../clib/microlib/malloc/malloc.c         0x00000000   Number         0  malloc.o ABSOLUTE
    ../clib/microlib/malloc/malloc.c         0x00000000   Number         0  mallocra.o ABSOLUTE
    ../clib/microlib/malloc/malloc.c         0x00000000   Number         0  malloca.o ABSOLUTE
    ../clib/microlib/malloc/malloc.c         0x00000000   Number         0  mallocr.o ABSOLUTE
    ../clib/microlib/malloc/mvars.c          0x00000000   Number         0  mvars.o ABSOLUTE
    ../clib/microlib/string/memcpy.c         0x00000000   Number         0  memcpyb.o ABSOLUTE
    ../clib/microlib/string/memcpy.c         0x00000000   Number         0  memcpya.o ABSOLUTE
    ../clib/microlib/string/memset.c         0x00000000   Number         0  memseta.o ABSOLUTE
    ../clib/microlib/string/memset.c         0x00000000   Number         0  memset.o ABSOLUTE
    ..\Drivers\STM32F4xx_HAL_Driver\Src\stm32f4xx_hal.c 0x00000000   Number         0  stm32f4xx_hal.o ABSOLUTE
    ..\Drivers\STM32F4xx_HAL_Driver\Src\stm32f4xx_hal_adc.c 0x00000000   Number         0  stm32f4xx_hal_adc.o ABSOLUTE
    ..\Drivers\STM32F4xx_HAL_Driver\Src\stm32f4xx_hal_adc_ex.c 0x00000000   Number         0  stm32f4xx_hal_adc_ex.o ABSOLUTE
    ..\Drivers\STM32F4xx_HAL_Driver\Src\stm32f4xx_hal_can.c 0x00000000   Number         0  stm32f4xx_hal_can.o ABSOLUTE
    ..\Drivers\STM32F4xx_HAL_Driver\Src\stm32f4xx_hal_cortex.c 0x00000000   Number         0  stm32f4xx_hal_cortex.o ABSOLUTE
    ..\Drivers\STM32F4xx_HAL_Driver\Src\stm32f4xx_hal_dma.c 0x00000000   Number         0  stm32f4xx_hal_dma.o ABSOLUTE
    ..\Drivers\STM32F4xx_HAL_Driver\Src\stm32f4xx_hal_dma_ex.c 0x00000000   Number         0  stm32f4xx_hal_dma_ex.o ABSOLUTE
    ..\Drivers\STM32F4xx_HAL_Driver\Src\stm32f4xx_hal_exti.c 0x00000000   Number         0  stm32f4xx_hal_exti.o ABSOLUTE
    ..\Drivers\STM32F4xx_HAL_Driver\Src\stm32f4xx_hal_flash.c 0x00000000   Number         0  stm32f4xx_hal_flash.o ABSOLUTE
    ..\Drivers\STM32F4xx_HAL_Driver\Src\stm32f4xx_hal_flash_ex.c 0x00000000   Number         0  stm32f4xx_hal_flash_ex.o ABSOLUTE
    ..\Drivers\STM32F4xx_HAL_Driver\Src\stm32f4xx_hal_flash_ramfunc.c 0x00000000   Number         0  stm32f4xx_hal_flash_ramfunc.o ABSOLUTE
    ..\Drivers\STM32F4xx_HAL_Driver\Src\stm32f4xx_hal_gpio.c 0x00000000   Number         0  stm32f4xx_hal_gpio.o ABSOLUTE
    ..\Drivers\STM32F4xx_HAL_Driver\Src\stm32f4xx_hal_pwr.c 0x00000000   Number         0  stm32f4xx_hal_pwr.o ABSOLUTE
    ..\Drivers\STM32F4xx_HAL_Driver\Src\stm32f4xx_hal_pwr_ex.c 0x00000000   Number         0  stm32f4xx_hal_pwr_ex.o ABSOLUTE
    ..\Drivers\STM32F4xx_HAL_Driver\Src\stm32f4xx_hal_rcc.c 0x00000000   Number         0  stm32f4xx_hal_rcc.o ABSOLUTE
    ..\Drivers\STM32F4xx_HAL_Driver\Src\stm32f4xx_hal_rcc_ex.c 0x00000000   Number         0  stm32f4xx_hal_rcc_ex.o ABSOLUTE
    ..\Drivers\STM32F4xx_HAL_Driver\Src\stm32f4xx_hal_spi.c 0x00000000   Number         0  stm32f4xx_hal_spi.o ABSOLUTE
    ..\Drivers\STM32F4xx_HAL_Driver\Src\stm32f4xx_hal_tim.c 0x00000000   Number         0  stm32f4xx_hal_tim.o ABSOLUTE
    ..\Drivers\STM32F4xx_HAL_Driver\Src\stm32f4xx_hal_tim_ex.c 0x00000000   Number         0  stm32f4xx_hal_tim_ex.o ABSOLUTE
    ..\Drivers\STM32F4xx_HAL_Driver\Src\stm32f4xx_hal_uart.c 0x00000000   Number         0  stm32f4xx_hal_uart.o ABSOLUTE
    ..\Middlewares\Third_Party\FreeRTOS\Source\CMSIS_RTOS\cmsis_os.c 0x00000000   Number         0  cmsis_os.o ABSOLUTE
    ..\Middlewares\Third_Party\FreeRTOS\Source\portable\RVDS\ARM_CM4F\port.c 0x00000000   Number         0  port.o ABSOLUTE
    ..\Src\adc.c                             0x00000000   Number         0  adc.o ABSOLUTE
    ..\Src\can.c                             0x00000000   Number         0  can.o ABSOLUTE
    ..\Src\freertos.c                        0x00000000   Number         0  freertos.o ABSOLUTE
    ..\Src\gpio.c                            0x00000000   Number         0  gpio.o ABSOLUTE
    ..\Src\main.c                            0x00000000   Number         0  main.o ABSOLUTE
    ..\Src\spi.c                             0x00000000   Number         0  spi.o ABSOLUTE
    ..\Src\stm32f4xx_hal_msp.c               0x00000000   Number         0  stm32f4xx_hal_msp.o ABSOLUTE
    ..\Src\stm32f4xx_it.c                    0x00000000   Number         0  stm32f4xx_it.o ABSOLUTE
    ..\Src\system_stm32f4xx.c                0x00000000   Number         0  system_stm32f4xx.o ABSOLUTE
    ..\Src\usart.c                           0x00000000   Number         0  usart.o ABSOLUTE
    ..\\bmi088\\bmi088.c                     0x00000000   Number         0  bmi088.o ABSOLUTE
    ..\\bmi088\\bmi088_stm32.c               0x00000000   Number         0  bmi088_stm32.o ABSOLUTE
    ..\\bmi088\\bmi08a.c                     0x00000000   Number         0  bmi08a.o ABSOLUTE
    ..\\bmi088\\bmi08g.c                     0x00000000   Number         0  bmi08g.o ABSOLUTE
    ..\bmi088\bmi088.c                       0x00000000   Number         0  bmi088.o ABSOLUTE
    ..\bmi088\bmi088_stm32.c                 0x00000000   Number         0  bmi088_stm32.o ABSOLUTE
    ..\bmi088\bmi08a.c                       0x00000000   Number         0  bmi08a.o ABSOLUTE
    ..\bmi088\bmi08g.c                       0x00000000   Number         0  bmi08g.o ABSOLUTE
    dc.s                                     0x00000000   Number         0  dc.o ABSOLUTE
    handlers.s                               0x00000000   Number         0  handlers.o ABSOLUTE
    init.s                                   0x00000000   Number         0  init.o ABSOLUTE
    startup_stm32f405xx.s                    0x00000000   Number         0  startup_stm32f405xx.o ABSOLUTE
    RESET                                    0x08000000   Section      392  startup_stm32f405xx.o(RESET)
    .ARM.Collect$$$$00000000                 0x08000188   Section        0  entry.o(.ARM.Collect$$$$00000000)
    .ARM.Collect$$$$00000001                 0x08000188   Section        4  entry2.o(.ARM.Collect$$$$00000001)
    .ARM.Collect$$$$00000004                 0x0800018c   Section        4  entry5.o(.ARM.Collect$$$$00000004)
    .ARM.Collect$$$$00000008                 0x08000190   Section        0  entry7b.o(.ARM.Collect$$$$00000008)
    .ARM.Collect$$$$0000000A                 0x08000190   Section        0  entry8b.o(.ARM.Collect$$$$0000000A)
    .ARM.Collect$$$$0000000B                 0x08000190   Section        8  entry9a.o(.ARM.Collect$$$$0000000B)
    .ARM.Collect$$$$0000000D                 0x08000198   Section        0  entry10a.o(.ARM.Collect$$$$0000000D)
    .ARM.Collect$$$$0000000F                 0x08000198   Section        0  entry11a.o(.ARM.Collect$$$$0000000F)
    .ARM.Collect$$$$00002712                 0x08000198   Section        4  entry2.o(.ARM.Collect$$$$00002712)
    __lit__00000000                          0x08000198   Data           4  entry2.o(.ARM.Collect$$$$00002712)
    .emb_text                                0x0800019c   Section      190  port.o(.emb_text)
    $v0                                      0x0800019c   Number         0  port.o(.emb_text)
    .text                                    0x0800025c   Section       36  startup_stm32f405xx.o(.text)
    $v0                                      0x0800025c   Number         0  startup_stm32f405xx.o(.text)
    .text                                    0x08000280   Section        0  uldiv.o(.text)
    .text                                    0x080002e2   Section        0  memcpya.o(.text)
    .text                                    0x08000306   Section        0  memseta.o(.text)
    .text                                    0x0800032a   Section        0  llshl.o(.text)
    .text                                    0x08000348   Section        0  llushr.o(.text)
    .text                                    0x08000368   Section       36  init.o(.text)
    i.ADC_Init                               0x0800038c   Section        0  stm32f4xx_hal_adc.o(i.ADC_Init)
    ADC_Init                                 0x0800038d   Thumb Code   284  stm32f4xx_hal_adc.o(i.ADC_Init)
    i.BusFault_Handler                       0x080004b4   Section        0  stm32f4xx_it.o(i.BusFault_Handler)
    i.DebugMon_Handler                       0x080004b6   Section        0  stm32f4xx_it.o(i.DebugMon_Handler)
    i.EXTI0_IRQHandler                       0x080004b8   Section        0  stm32f4xx_it.o(i.EXTI0_IRQHandler)
    i.EXTI1_IRQHandler                       0x08000540   Section        0  stm32f4xx_it.o(i.EXTI1_IRQHandler)
    i.Error_Handler                          0x08000546   Section        0  main.o(i.Error_Handler)
    i.HAL_ADC_ConfigChannel                  0x08000548   Section        0  stm32f4xx_hal_adc.o(i.HAL_ADC_ConfigChannel)
    i.HAL_ADC_Init                           0x08000694   Section        0  stm32f4xx_hal_adc.o(i.HAL_ADC_Init)
    i.HAL_ADC_MspInit                        0x080006e8   Section        0  adc.o(i.HAL_ADC_MspInit)
    i.HAL_CAN_Init                           0x08000710   Section        0  stm32f4xx_hal_can.o(i.HAL_CAN_Init)
    i.HAL_CAN_MspInit                        0x0800082c   Section        0  can.o(i.HAL_CAN_MspInit)
    i.HAL_DMA_Abort_IT                       0x08000898   Section        0  stm32f4xx_hal_dma.o(i.HAL_DMA_Abort_IT)
    i.HAL_Delay                              0x080008bc   Section        0  stm32f4xx_hal.o(i.HAL_Delay)
    i.HAL_GPIO_EXTI_Callback                 0x080008e0   Section        0  stm32f4xx_hal_gpio.o(i.HAL_GPIO_EXTI_Callback)
    i.HAL_GPIO_EXTI_IRQHandler               0x080008e4   Section        0  stm32f4xx_hal_gpio.o(i.HAL_GPIO_EXTI_IRQHandler)
    i.HAL_GPIO_Init                          0x080008fc   Section        0  stm32f4xx_hal_gpio.o(i.HAL_GPIO_Init)
    i.HAL_GPIO_TogglePin                     0x08000ab4   Section        0  stm32f4xx_hal_gpio.o(i.HAL_GPIO_TogglePin)
    i.HAL_GPIO_WritePin                      0x08000ac2   Section        0  stm32f4xx_hal_gpio.o(i.HAL_GPIO_WritePin)
    i.HAL_GetTick                            0x08000acc   Section        0  stm32f4xx_hal.o(i.HAL_GetTick)
    i.HAL_IncTick                            0x08000ad8   Section        0  stm32f4xx_hal.o(i.HAL_IncTick)
    i.HAL_Init                               0x08000ae8   Section        0  stm32f4xx_hal.o(i.HAL_Init)
    i.HAL_InitTick                           0x08000b1c   Section        0  stm32f4xx_hal.o(i.HAL_InitTick)
    i.HAL_MspInit                            0x08000b5c   Section        0  stm32f4xx_hal_msp.o(i.HAL_MspInit)
    i.HAL_NVIC_EnableIRQ                     0x08000b94   Section        0  stm32f4xx_hal_cortex.o(i.HAL_NVIC_EnableIRQ)
    i.HAL_NVIC_SetPriority                   0x08000bb0   Section        0  stm32f4xx_hal_cortex.o(i.HAL_NVIC_SetPriority)
    i.HAL_NVIC_SetPriorityGrouping           0x08000bf0   Section        0  stm32f4xx_hal_cortex.o(i.HAL_NVIC_SetPriorityGrouping)
    i.HAL_RCC_ClockConfig                    0x08000c14   Section        0  stm32f4xx_hal_rcc.o(i.HAL_RCC_ClockConfig)
    i.HAL_RCC_GetPCLK1Freq                   0x08000d48   Section        0  stm32f4xx_hal_rcc.o(i.HAL_RCC_GetPCLK1Freq)
    i.HAL_RCC_GetPCLK2Freq                   0x08000d68   Section        0  stm32f4xx_hal_rcc.o(i.HAL_RCC_GetPCLK2Freq)
    i.HAL_RCC_GetSysClockFreq                0x08000d88   Section        0  stm32f4xx_hal_rcc.o(i.HAL_RCC_GetSysClockFreq)
    i.HAL_RCC_OscConfig                      0x08000dec   Section        0  stm32f4xx_hal_rcc.o(i.HAL_RCC_OscConfig)
    i.HAL_SPI_GetState                       0x08001148   Section        0  stm32f4xx_hal_spi.o(i.HAL_SPI_GetState)
    i.HAL_SPI_Init                           0x0800114e   Section        0  stm32f4xx_hal_spi.o(i.HAL_SPI_Init)
    i.HAL_SPI_MspInit                        0x080011d0   Section        0  spi.o(i.HAL_SPI_MspInit)
    i.HAL_SPI_Receive                        0x08001238   Section        0  stm32f4xx_hal_spi.o(i.HAL_SPI_Receive)
    i.HAL_SPI_Transmit                       0x08001388   Section        0  stm32f4xx_hal_spi.o(i.HAL_SPI_Transmit)
    i.HAL_SPI_TransmitReceive                0x080014e4   Section        0  stm32f4xx_hal_spi.o(i.HAL_SPI_TransmitReceive)
    i.HAL_SYSTICK_Config                     0x080016c6   Section        0  stm32f4xx_hal_cortex.o(i.HAL_SYSTICK_Config)
    i.HAL_UART_ErrorCallback                 0x080016ee   Section        0  stm32f4xx_hal_uart.o(i.HAL_UART_ErrorCallback)
    i.HAL_UART_IRQHandler                    0x080016f0   Section        0  stm32f4xx_hal_uart.o(i.HAL_UART_IRQHandler)
    i.HAL_UART_Init                          0x08001804   Section        0  stm32f4xx_hal_uart.o(i.HAL_UART_Init)
    i.HAL_UART_MspInit                       0x08001868   Section        0  usart.o(i.HAL_UART_MspInit)
    i.HAL_UART_RxCpltCallback                0x080018e4   Section        0  stm32f4xx_hal_uart.o(i.HAL_UART_RxCpltCallback)
    i.HAL_UART_TxCpltCallback                0x080018e6   Section        0  stm32f4xx_hal_uart.o(i.HAL_UART_TxCpltCallback)
    i.HardFault_Handler                      0x080018e8   Section        0  stm32f4xx_it.o(i.HardFault_Handler)
    i.MX_ADC1_Init                           0x080018ec   Section        0  adc.o(i.MX_ADC1_Init)
    i.MX_CAN1_Init                           0x08001950   Section        0  can.o(i.MX_CAN1_Init)
    i.MX_FREERTOS_Init                       0x08001994   Section        0  freertos.o(i.MX_FREERTOS_Init)
    i.MX_GPIO_Init                           0x080019bc   Section        0  gpio.o(i.MX_GPIO_Init)
    i.MX_SPI1_Init                           0x08001a98   Section        0  spi.o(i.MX_SPI1_Init)
    i.MX_USART1_UART_Init                    0x08001ae0   Section        0  usart.o(i.MX_USART1_UART_Init)
    i.MemManage_Handler                      0x08001b18   Section        0  stm32f4xx_it.o(i.MemManage_Handler)
    i.NMI_Handler                            0x08001b1a   Section        0  stm32f4xx_it.o(i.NMI_Handler)
    i.SPI_EndRxTransaction                   0x08001b1c   Section        0  stm32f4xx_hal_spi.o(i.SPI_EndRxTransaction)
    SPI_EndRxTransaction                     0x08001b1d   Thumb Code    92  stm32f4xx_hal_spi.o(i.SPI_EndRxTransaction)
    i.SPI_EndRxTxTransaction                 0x08001b78   Section        0  stm32f4xx_hal_spi.o(i.SPI_EndRxTxTransaction)
    SPI_EndRxTxTransaction                   0x08001b79   Thumb Code    80  stm32f4xx_hal_spi.o(i.SPI_EndRxTxTransaction)
    i.SPI_WaitFlagStateUntilTimeout          0x08001bd0   Section        0  stm32f4xx_hal_spi.o(i.SPI_WaitFlagStateUntilTimeout)
    SPI_WaitFlagStateUntilTimeout            0x08001bd1   Thumb Code   148  stm32f4xx_hal_spi.o(i.SPI_WaitFlagStateUntilTimeout)
    i.StartDefaultTask                       0x08001c64   Section        0  freertos.o(i.StartDefaultTask)
    i.SysTick_Handler                        0x08001c6c   Section        0  stm32f4xx_it.o(i.SysTick_Handler)
    i.SystemClock_Config                     0x08001c84   Section        0  main.o(i.SystemClock_Config)
    i.SystemInit                             0x08001d0c   Section        0  system_stm32f4xx.o(i.SystemInit)
    i.UART_DMAAbortOnError                   0x08001d28   Section        0  stm32f4xx_hal_uart.o(i.UART_DMAAbortOnError)
    UART_DMAAbortOnError                     0x08001d29   Thumb Code    16  stm32f4xx_hal_uart.o(i.UART_DMAAbortOnError)
    i.UART_EndRxTransfer                     0x08001d38   Section        0  stm32f4xx_hal_uart.o(i.UART_EndRxTransfer)
    UART_EndRxTransfer                       0x08001d39   Thumb Code    28  stm32f4xx_hal_uart.o(i.UART_EndRxTransfer)
    i.UART_Receive_IT                        0x08001d54   Section        0  stm32f4xx_hal_uart.o(i.UART_Receive_IT)
    UART_Receive_IT                          0x08001d55   Thumb Code   150  stm32f4xx_hal_uart.o(i.UART_Receive_IT)
    i.UART_SetConfig                         0x08001dec   Section        0  stm32f4xx_hal_uart.o(i.UART_SetConfig)
    UART_SetConfig                           0x08001ded   Thumb Code   286  stm32f4xx_hal_uart.o(i.UART_SetConfig)
    i.UART_Transmit_IT                       0x08001f14   Section        0  stm32f4xx_hal_uart.o(i.UART_Transmit_IT)
    UART_Transmit_IT                         0x08001f15   Thumb Code    98  stm32f4xx_hal_uart.o(i.UART_Transmit_IT)
    i.USART1_IRQHandler                      0x08001f78   Section        0  stm32f4xx_it.o(i.USART1_IRQHandler)
    i.UsageFault_Handler                     0x08001f84   Section        0  stm32f4xx_it.o(i.UsageFault_Handler)
    i.__NVIC_SetPriority                     0x08001f86   Section        0  stm32f4xx_hal_cortex.o(i.__NVIC_SetPriority)
    __NVIC_SetPriority                       0x08001f87   Thumb Code    32  stm32f4xx_hal_cortex.o(i.__NVIC_SetPriority)
    i.__scatterload_copy                     0x08001fa6   Section       14  handlers.o(i.__scatterload_copy)
    i.__scatterload_null                     0x08001fb4   Section        2  handlers.o(i.__scatterload_null)
    i.__scatterload_zeroinit                 0x08001fb6   Section       14  handlers.o(i.__scatterload_zeroinit)
    i.bmi088_apply_config_file               0x08001fc4   Section        0  bmi088.o(i.bmi088_apply_config_file)
    i.bmi088_configure_data_synchronization  0x08001fe4   Section        0  bmi088.o(i.bmi088_configure_data_synchronization)
    i.bmi088_get_synchronized_data           0x0800204c   Section        0  bmi088.o(i.bmi088_get_synchronized_data)
    i.bmi088_init                            0x080020ba   Section        0  bmi088.o(i.bmi088_init)
    i.bmi088_set_data_sync_int_config        0x080020d2   Section        0  bmi088.o(i.bmi088_set_data_sync_int_config)
    i.bmi08a_get_regs                        0x08002108   Section        0  bmi08a.o(i.bmi08a_get_regs)
    i.bmi08a_init                            0x0800213e   Section        0  bmi08a.o(i.bmi08a_init)
    i.bmi08a_set_int_config                  0x0800218e   Section        0  bmi08a.o(i.bmi08a_set_int_config)
    i.bmi08a_set_meas_conf                   0x08002298   Section        0  bmi08a.o(i.bmi08a_set_meas_conf)
    i.bmi08a_set_power_mode                  0x08002320   Section        0  bmi08a.o(i.bmi08a_set_power_mode)
    i.bmi08a_set_regs                        0x0800237c   Section        0  bmi08a.o(i.bmi08a_set_regs)
    i.bmi08a_soft_reset                      0x080023b2   Section        0  bmi08a.o(i.bmi08a_soft_reset)
    i.bmi08a_write_config_file               0x080023f2   Section        0  bmi08a.o(i.bmi08a_write_config_file)
    i.bmi08a_write_feature_config            0x08002508   Section        0  bmi08a.o(i.bmi08a_write_feature_config)
    i.bmi08g_get_data                        0x08002578   Section        0  bmi08g.o(i.bmi08g_get_data)
    i.bmi08g_init                            0x080025ca   Section        0  bmi08g.o(i.bmi08g_init)
    i.bmi08g_set_int_config                  0x080025fc   Section        0  bmi08g.o(i.bmi08g_set_int_config)
    i.bmi08g_set_meas_conf                   0x08002628   Section        0  bmi08g.o(i.bmi08g_set_meas_conf)
    i.bmi08g_set_power_mode                  0x080026b2   Section        0  bmi08g.o(i.bmi08g_set_power_mode)
    i.free                                   0x08002714   Section        0  malloc.o(i.free)
    i.get_regs                               0x08002764   Section        0  bmi08a.o(i.get_regs)
    get_regs                                 0x08002765   Thumb Code    94  bmi08a.o(i.get_regs)
    i.get_regs                               0x080027c2   Section        0  bmi08g.o(i.get_regs)
    get_regs                                 0x080027c3   Thumb Code    40  bmi08g.o(i.get_regs)
    i.main                                   0x080027ec   Section        0  main.o(i.main)
    i.makeFreeRtosPriority                   0x080028b8   Section        0  cmsis_os.o(i.makeFreeRtosPriority)
    makeFreeRtosPriority                     0x080028b9   Thumb Code    12  cmsis_os.o(i.makeFreeRtosPriority)
    i.malloc                                 0x080028c4   Section        0  malloc.o(i.malloc)
    i.null_ptr_check                         0x08002930   Section        0  bmi08a.o(i.null_ptr_check)
    null_ptr_check                           0x08002931   Thumb Code    24  bmi08a.o(i.null_ptr_check)
    i.null_ptr_check                         0x08002948   Section        0  bmi08g.o(i.null_ptr_check)
    null_ptr_check                           0x08002949   Thumb Code    24  bmi08g.o(i.null_ptr_check)
    i.null_ptr_check                         0x08002960   Section        0  bmi088.o(i.null_ptr_check)
    null_ptr_check                           0x08002961   Thumb Code    24  bmi088.o(i.null_ptr_check)
    i.osDelay                                0x08002978   Section        0  cmsis_os.o(i.osDelay)
    i.osKernelStart                          0x08002986   Section        0  cmsis_os.o(i.osKernelStart)
    i.osThreadCreate                         0x08002990   Section        0  cmsis_os.o(i.osThreadCreate)
    i.prvAddCurrentTaskToDelayedList         0x080029e4   Section        0  tasks.o(i.prvAddCurrentTaskToDelayedList)
    prvAddCurrentTaskToDelayedList           0x080029e5   Thumb Code   102  tasks.o(i.prvAddCurrentTaskToDelayedList)
    i.prvAddNewTaskToReadyList               0x08002a54   Section        0  tasks.o(i.prvAddNewTaskToReadyList)
    prvAddNewTaskToReadyList                 0x08002a55   Thumb Code   194  tasks.o(i.prvAddNewTaskToReadyList)
    i.prvDeleteTCB                           0x08002b24   Section        0  tasks.o(i.prvDeleteTCB)
    prvDeleteTCB                             0x08002b25   Thumb Code    52  tasks.o(i.prvDeleteTCB)
    i.prvHeapInit                            0x08002b58   Section        0  heap_4.o(i.prvHeapInit)
    prvHeapInit                              0x08002b59   Thumb Code    66  heap_4.o(i.prvHeapInit)
    i.prvIdleTask                            0x08002ba4   Section        0  tasks.o(i.prvIdleTask)
    prvIdleTask                              0x08002ba5   Thumb Code    82  tasks.o(i.prvIdleTask)
    i.prvInitialiseNewTask                   0x08002c04   Section        0  tasks.o(i.prvInitialiseNewTask)
    prvInitialiseNewTask                     0x08002c05   Thumb Code   142  tasks.o(i.prvInitialiseNewTask)
    i.prvInsertBlockIntoFreeList             0x08002c94   Section        0  heap_4.o(i.prvInsertBlockIntoFreeList)
    prvInsertBlockIntoFreeList               0x08002c95   Thumb Code    72  heap_4.o(i.prvInsertBlockIntoFreeList)
    i.prvResetNextTaskUnblockTime            0x08002ce0   Section        0  tasks.o(i.prvResetNextTaskUnblockTime)
    prvResetNextTaskUnblockTime              0x08002ce1   Thumb Code    26  tasks.o(i.prvResetNextTaskUnblockTime)
    i.prvTaskExitError                       0x08002d00   Section        0  port.o(i.prvTaskExitError)
    prvTaskExitError                         0x08002d01   Thumb Code    36  port.o(i.prvTaskExitError)
    i.pvPortMalloc                           0x08002d28   Section        0  heap_4.o(i.pvPortMalloc)
    i.pxPortInitialiseStack                  0x08002e00   Section        0  port.o(i.pxPortInitialiseStack)
    i.set_gyro_data_ready_int                0x08002e2c   Section        0  bmi08g.o(i.set_gyro_data_ready_int)
    set_gyro_data_ready_int                  0x08002e2d   Thumb Code   208  bmi08g.o(i.set_gyro_data_ready_int)
    i.set_int_pin_config                     0x08002efc   Section        0  bmi08a.o(i.set_int_pin_config)
    set_int_pin_config                       0x08002efd   Thumb Code   132  bmi08a.o(i.set_int_pin_config)
    i.set_regs                               0x08002f80   Section        0  bmi08a.o(i.set_regs)
    set_regs                                 0x08002f81   Thumb Code    40  bmi08a.o(i.set_regs)
    i.set_regs                               0x08002fa8   Section        0  bmi08g.o(i.set_regs)
    set_regs                                 0x08002fa9   Thumb Code    40  bmi08g.o(i.set_regs)
    i.stm32_spi_read                         0x08002fd0   Section        0  bmi088_stm32.o(i.stm32_spi_read)
    i.stm32_spi_write                        0x08003020   Section        0  bmi088_stm32.o(i.stm32_spi_write)
    i.uxListRemove                           0x08003084   Section        0  list.o(i.uxListRemove)
    i.vApplicationGetIdleTaskMemory          0x080030ac   Section        0  freertos.o(i.vApplicationGetIdleTaskMemory)
    i.vListInitialise                        0x080030c0   Section        0  list.o(i.vListInitialise)
    i.vListInitialiseItem                    0x080030d6   Section        0  list.o(i.vListInitialiseItem)
    i.vListInsert                            0x080030dc   Section        0  list.o(i.vListInsert)
    i.vListInsertEnd                         0x0800310c   Section        0  list.o(i.vListInsertEnd)
    i.vPortEnterCritical                     0x08003124   Section        0  port.o(i.vPortEnterCritical)
    i.vPortExitCritical                      0x08003164   Section        0  port.o(i.vPortExitCritical)
    i.vPortFree                              0x0800318c   Section        0  heap_4.o(i.vPortFree)
    i.vPortSetupTimerInterrupt               0x080031e8   Section        0  port.o(i.vPortSetupTimerInterrupt)
    i.vTaskDelay                             0x0800320c   Section        0  tasks.o(i.vTaskDelay)
    i.vTaskStartScheduler                    0x08003258   Section        0  tasks.o(i.vTaskStartScheduler)
    i.vTaskSuspendAll                        0x080032c4   Section        0  tasks.o(i.vTaskSuspendAll)
    i.vTaskSwitchContext                     0x080032d4   Section        0  tasks.o(i.vTaskSwitchContext)
    i.xPortStartScheduler                    0x08003330   Section        0  port.o(i.xPortStartScheduler)
    i.xPortSysTickHandler                    0x08003424   Section        0  port.o(i.xPortSysTickHandler)
    i.xTaskCreate                            0x08003450   Section        0  tasks.o(i.xTaskCreate)
    i.xTaskCreateStatic                      0x080034aa   Section        0  tasks.o(i.xTaskCreateStatic)
    i.xTaskGetSchedulerState                 0x08003500   Section        0  tasks.o(i.xTaskGetSchedulerState)
    i.xTaskIncrementTick                     0x0800351c   Section        0  tasks.o(i.xTaskIncrementTick)
    i.xTaskResumeAll                         0x080035e4   Section        0  tasks.o(i.xTaskResumeAll)
    .constdata                               0x080036a8   Section       28  freertos.o(.constdata)
    .constdata                               0x080036c4   Section       16  system_stm32f4xx.o(.constdata)
    .constdata                               0x080036d4   Section        8  system_stm32f4xx.o(.constdata)
    .constdata                               0x080036dc   Section     6144  bmi08a.o(.constdata)
    .conststring                             0x08004edc   Section       12  freertos.o(.conststring)
    .data                                    0x20000000   Section       56  main.o(.data)
    .data                                    0x20000038   Section        6  main.o(.data)
    .data                                    0x2000003e   Section        6  main.o(.data)
    .data                                    0x20000044   Section        4  freertos.o(.data)
    .data                                    0x20000048   Section        4  stm32f4xx_it.o(.data)
    .data                                    0x2000004c   Section       12  stm32f4xx_hal.o(.data)
    .data                                    0x20000058   Section        4  system_stm32f4xx.o(.data)
    .data                                    0x2000005c   Section       60  tasks.o(.data)
    pxDelayedTaskList                        0x20000060   Data           4  tasks.o(.data)
    pxOverflowDelayedTaskList                0x20000064   Data           4  tasks.o(.data)
    uxDeletedTasksWaitingCleanUp             0x20000068   Data           4  tasks.o(.data)
    uxCurrentNumberOfTasks                   0x2000006c   Data           4  tasks.o(.data)
    xTickCount                               0x20000070   Data           4  tasks.o(.data)
    uxTopReadyPriority                       0x20000074   Data           4  tasks.o(.data)
    xSchedulerRunning                        0x20000078   Data           4  tasks.o(.data)
    uxPendedTicks                            0x2000007c   Data           4  tasks.o(.data)
    xYieldPending                            0x20000080   Data           4  tasks.o(.data)
    xNumOfOverflows                          0x20000084   Data           4  tasks.o(.data)
    uxTaskNumber                             0x20000088   Data           4  tasks.o(.data)
    xNextTaskUnblockTime                     0x2000008c   Data           4  tasks.o(.data)
    xIdleTaskHandle                          0x20000090   Data           4  tasks.o(.data)
    uxSchedulerSuspended                     0x20000094   Data           4  tasks.o(.data)
    .data                                    0x20000098   Section       24  heap_4.o(.data)
    pxEnd                                    0x20000098   Data           4  heap_4.o(.data)
    xFreeBytesRemaining                      0x2000009c   Data           4  heap_4.o(.data)
    xMinimumEverFreeBytesRemaining           0x200000a0   Data           4  heap_4.o(.data)
    xBlockAllocatedBit                       0x200000a4   Data           4  heap_4.o(.data)
    xStart                                   0x200000a8   Data           8  heap_4.o(.data)
    .data                                    0x200000b0   Section       12  port.o(.data)
    ucMaxSysCallPriority                     0x200000b0   Data           1  port.o(.data)
    uxCriticalNesting                        0x200000b4   Data           4  port.o(.data)
    ulMaxPRIGROUPValue                       0x200000b8   Data           4  port.o(.data)
    .data                                    0x200000bc   Section        4  mvars.o(.data)
    .data                                    0x200000c0   Section        4  mvars.o(.data)
    .bss                                     0x200000c4   Section       12  main.o(.bss)
    .bss                                     0x200000d0   Section       72  adc.o(.bss)
    .bss                                     0x20000118   Section       40  can.o(.bss)
    .bss                                     0x20000140   Section      596  freertos.o(.bss)
    xIdleTaskTCBBuffer                       0x20000140   Data          84  freertos.o(.bss)
    xIdleStack                               0x20000194   Data         512  freertos.o(.bss)
    .bss                                     0x20000394   Section       88  spi.o(.bss)
    .bss                                     0x200003ec   Section       64  usart.o(.bss)
    .bss                                     0x2000042c   Section      240  tasks.o(.bss)
    pxReadyTasksLists                        0x2000042c   Data         140  tasks.o(.bss)
    xDelayedTaskList1                        0x200004b8   Data          20  tasks.o(.bss)
    xDelayedTaskList2                        0x200004cc   Data          20  tasks.o(.bss)
    xPendingReadyList                        0x200004e0   Data          20  tasks.o(.bss)
    xTasksWaitingTermination                 0x200004f4   Data          20  tasks.o(.bss)
    xSuspendedTaskList                       0x20000508   Data          20  tasks.o(.bss)
    .bss                                     0x2000051c   Section    15360  heap_4.o(.bss)
    ucHeap                                   0x2000051c   Data       15360  heap_4.o(.bss)
    HEAP                                     0x20004120   Section      512  startup_stm32f405xx.o(HEAP)
    STACK                                    0x20004320   Section     1024  startup_stm32f405xx.o(STACK)

    Global Symbols

    Symbol Name                              Value     Ov Type        Size  Object(Section)

    BuildAttributes$$THM_ISAv4$E$P$D$K$B$S$7EM$VFPi3$EXTD16$VFPS$VFMA$PE$A:L22UL41UL21$X:L11$S22US41US21$IEEE1$IW$USESV6$~STKCKD$USESV7$~SHL$OSPACE$EBA8$MICROLIB$REQ8$PRES8$EABIv2 0x00000000   Number         0  anon$$obj.o ABSOLUTE
    __ARM_use_no_argv                        0x00000000   Number         0  main.o ABSOLUTE
    __cpp_initialize__aeabi_                  - Undefined Weak Reference
    __cxa_finalize                            - Undefined Weak Reference
    __decompress                              - Undefined Weak Reference
    _clock_init                               - Undefined Weak Reference
    _microlib_exit                            - Undefined Weak Reference
    __Vectors_Size                           0x00000188   Number         0  startup_stm32f405xx.o ABSOLUTE
    __Vectors                                0x08000000   Data           4  startup_stm32f405xx.o(RESET)
    __Vectors_End                            0x08000188   Data           0  startup_stm32f405xx.o(RESET)
    __main                                   0x08000189   Thumb Code     0  entry.o(.ARM.Collect$$$$00000000)
    _main_stk                                0x08000189   Thumb Code     0  entry2.o(.ARM.Collect$$$$00000001)
    _main_scatterload                        0x0800018d   Thumb Code     0  entry5.o(.ARM.Collect$$$$00000004)
    __main_after_scatterload                 0x08000191   Thumb Code     0  entry5.o(.ARM.Collect$$$$00000004)
    _main_clock                              0x08000191   Thumb Code     0  entry7b.o(.ARM.Collect$$$$00000008)
    _main_cpp_init                           0x08000191   Thumb Code     0  entry8b.o(.ARM.Collect$$$$0000000A)
    _main_init                               0x08000191   Thumb Code     0  entry9a.o(.ARM.Collect$$$$0000000B)
    __rt_final_cpp                           0x08000199   Thumb Code     0  entry10a.o(.ARM.Collect$$$$0000000D)
    __rt_final_exit                          0x08000199   Thumb Code     0  entry11a.o(.ARM.Collect$$$$0000000F)
    SVC_Handler                              0x0800019d   Thumb Code    28  port.o(.emb_text)
    __asm___6_port_c_39a90d8d__prvStartFirstTask 0x080001bd   Thumb Code    36  port.o(.emb_text)
    __asm___6_port_c_39a90d8d__prvEnableVFP  0x080001e5   Thumb Code    16  port.o(.emb_text)
    PendSV_Handler                           0x080001f9   Thumb Code    88  port.o(.emb_text)
    vPortGetIPSR                             0x08000255   Thumb Code     6  port.o(.emb_text)
    Reset_Handler                            0x0800025d   Thumb Code     8  startup_stm32f405xx.o(.text)
    ADC_IRQHandler                           0x08000277   Thumb Code     0  startup_stm32f405xx.o(.text)
    CAN1_RX0_IRQHandler                      0x08000277   Thumb Code     0  startup_stm32f405xx.o(.text)
    CAN1_RX1_IRQHandler                      0x08000277   Thumb Code     0  startup_stm32f405xx.o(.text)
    CAN1_SCE_IRQHandler                      0x08000277   Thumb Code     0  startup_stm32f405xx.o(.text)
    CAN1_TX_IRQHandler                       0x08000277   Thumb Code     0  startup_stm32f405xx.o(.text)
    CAN2_RX0_IRQHandler                      0x08000277   Thumb Code     0  startup_stm32f405xx.o(.text)
    CAN2_RX1_IRQHandler                      0x08000277   Thumb Code     0  startup_stm32f405xx.o(.text)
    CAN2_SCE_IRQHandler                      0x08000277   Thumb Code     0  startup_stm32f405xx.o(.text)
    CAN2_TX_IRQHandler                       0x08000277   Thumb Code     0  startup_stm32f405xx.o(.text)
    DMA1_Stream0_IRQHandler                  0x08000277   Thumb Code     0  startup_stm32f405xx.o(.text)
    DMA1_Stream1_IRQHandler                  0x08000277   Thumb Code     0  startup_stm32f405xx.o(.text)
    DMA1_Stream2_IRQHandler                  0x08000277   Thumb Code     0  startup_stm32f405xx.o(.text)
    DMA1_Stream3_IRQHandler                  0x08000277   Thumb Code     0  startup_stm32f405xx.o(.text)
    DMA1_Stream4_IRQHandler                  0x08000277   Thumb Code     0  startup_stm32f405xx.o(.text)
    DMA1_Stream5_IRQHandler                  0x08000277   Thumb Code     0  startup_stm32f405xx.o(.text)
    DMA1_Stream6_IRQHandler                  0x08000277   Thumb Code     0  startup_stm32f405xx.o(.text)
    DMA1_Stream7_IRQHandler                  0x08000277   Thumb Code     0  startup_stm32f405xx.o(.text)
    DMA2_Stream0_IRQHandler                  0x08000277   Thumb Code     0  startup_stm32f405xx.o(.text)
    DMA2_Stream1_IRQHandler                  0x08000277   Thumb Code     0  startup_stm32f405xx.o(.text)
    DMA2_Stream2_IRQHandler                  0x08000277   Thumb Code     0  startup_stm32f405xx.o(.text)
    DMA2_Stream3_IRQHandler                  0x08000277   Thumb Code     0  startup_stm32f405xx.o(.text)
    DMA2_Stream4_IRQHandler                  0x08000277   Thumb Code     0  startup_stm32f405xx.o(.text)
    DMA2_Stream5_IRQHandler                  0x08000277   Thumb Code     0  startup_stm32f405xx.o(.text)
    DMA2_Stream6_IRQHandler                  0x08000277   Thumb Code     0  startup_stm32f405xx.o(.text)
    DMA2_Stream7_IRQHandler                  0x08000277   Thumb Code     0  startup_stm32f405xx.o(.text)
    EXTI15_10_IRQHandler                     0x08000277   Thumb Code     0  startup_stm32f405xx.o(.text)
    EXTI2_IRQHandler                         0x08000277   Thumb Code     0  startup_stm32f405xx.o(.text)
    EXTI3_IRQHandler                         0x08000277   Thumb Code     0  startup_stm32f405xx.o(.text)
    EXTI4_IRQHandler                         0x08000277   Thumb Code     0  startup_stm32f405xx.o(.text)
    EXTI9_5_IRQHandler                       0x08000277   Thumb Code     0  startup_stm32f405xx.o(.text)
    FLASH_IRQHandler                         0x08000277   Thumb Code     0  startup_stm32f405xx.o(.text)
    FMC_IRQHandler                           0x08000277   Thumb Code     0  startup_stm32f405xx.o(.text)
    FPU_IRQHandler                           0x08000277   Thumb Code     0  startup_stm32f405xx.o(.text)
    HASH_RNG_IRQHandler                      0x08000277   Thumb Code     0  startup_stm32f405xx.o(.text)
    I2C1_ER_IRQHandler                       0x08000277   Thumb Code     0  startup_stm32f405xx.o(.text)
    I2C1_EV_IRQHandler                       0x08000277   Thumb Code     0  startup_stm32f405xx.o(.text)
    I2C2_ER_IRQHandler                       0x08000277   Thumb Code     0  startup_stm32f405xx.o(.text)
    I2C2_EV_IRQHandler                       0x08000277   Thumb Code     0  startup_stm32f405xx.o(.text)
    I2C3_ER_IRQHandler                       0x08000277   Thumb Code     0  startup_stm32f405xx.o(.text)
    I2C3_EV_IRQHandler                       0x08000277   Thumb Code     0  startup_stm32f405xx.o(.text)
    OTG_FS_IRQHandler                        0x08000277   Thumb Code     0  startup_stm32f405xx.o(.text)
    OTG_FS_WKUP_IRQHandler                   0x08000277   Thumb Code     0  startup_stm32f405xx.o(.text)
    OTG_HS_EP1_IN_IRQHandler                 0x08000277   Thumb Code     0  startup_stm32f405xx.o(.text)
    OTG_HS_EP1_OUT_IRQHandler                0x08000277   Thumb Code     0  startup_stm32f405xx.o(.text)
    OTG_HS_IRQHandler                        0x08000277   Thumb Code     0  startup_stm32f405xx.o(.text)
    OTG_HS_WKUP_IRQHandler                   0x08000277   Thumb Code     0  startup_stm32f405xx.o(.text)
    PVD_IRQHandler                           0x08000277   Thumb Code     0  startup_stm32f405xx.o(.text)
    RCC_IRQHandler                           0x08000277   Thumb Code     0  startup_stm32f405xx.o(.text)
    RTC_Alarm_IRQHandler                     0x08000277   Thumb Code     0  startup_stm32f405xx.o(.text)
    RTC_WKUP_IRQHandler                      0x08000277   Thumb Code     0  startup_stm32f405xx.o(.text)
    SDIO_IRQHandler                          0x08000277   Thumb Code     0  startup_stm32f405xx.o(.text)
    SPI1_IRQHandler                          0x08000277   Thumb Code     0  startup_stm32f405xx.o(.text)
    SPI2_IRQHandler                          0x08000277   Thumb Code     0  startup_stm32f405xx.o(.text)
    SPI3_IRQHandler                          0x08000277   Thumb Code     0  startup_stm32f405xx.o(.text)
    TAMP_STAMP_IRQHandler                    0x08000277   Thumb Code     0  startup_stm32f405xx.o(.text)
    TIM1_BRK_TIM9_IRQHandler                 0x08000277   Thumb Code     0  startup_stm32f405xx.o(.text)
    TIM1_CC_IRQHandler                       0x08000277   Thumb Code     0  startup_stm32f405xx.o(.text)
    TIM1_TRG_COM_TIM11_IRQHandler            0x08000277   Thumb Code     0  startup_stm32f405xx.o(.text)
    TIM1_UP_TIM10_IRQHandler                 0x08000277   Thumb Code     0  startup_stm32f405xx.o(.text)
    TIM2_IRQHandler                          0x08000277   Thumb Code     0  startup_stm32f405xx.o(.text)
    TIM3_IRQHandler                          0x08000277   Thumb Code     0  startup_stm32f405xx.o(.text)
    TIM4_IRQHandler                          0x08000277   Thumb Code     0  startup_stm32f405xx.o(.text)
    TIM5_IRQHandler                          0x08000277   Thumb Code     0  startup_stm32f405xx.o(.text)
    TIM6_DAC_IRQHandler                      0x08000277   Thumb Code     0  startup_stm32f405xx.o(.text)
    TIM7_IRQHandler                          0x08000277   Thumb Code     0  startup_stm32f405xx.o(.text)
    TIM8_BRK_TIM12_IRQHandler                0x08000277   Thumb Code     0  startup_stm32f405xx.o(.text)
    TIM8_CC_IRQHandler                       0x08000277   Thumb Code     0  startup_stm32f405xx.o(.text)
    TIM8_TRG_COM_TIM14_IRQHandler            0x08000277   Thumb Code     0  startup_stm32f405xx.o(.text)
    TIM8_UP_TIM13_IRQHandler                 0x08000277   Thumb Code     0  startup_stm32f405xx.o(.text)
    UART4_IRQHandler                         0x08000277   Thumb Code     0  startup_stm32f405xx.o(.text)
    UART5_IRQHandler                         0x08000277   Thumb Code     0  startup_stm32f405xx.o(.text)
    USART2_IRQHandler                        0x08000277   Thumb Code     0  startup_stm32f405xx.o(.text)
    USART3_IRQHandler                        0x08000277   Thumb Code     0  startup_stm32f405xx.o(.text)
    USART6_IRQHandler                        0x08000277   Thumb Code     0  startup_stm32f405xx.o(.text)
    WWDG_IRQHandler                          0x08000277   Thumb Code     0  startup_stm32f405xx.o(.text)
    __aeabi_uldivmod                         0x08000281   Thumb Code    98  uldiv.o(.text)
    __aeabi_memcpy                           0x080002e3   Thumb Code    36  memcpya.o(.text)
    __aeabi_memcpy4                          0x080002e3   Thumb Code     0  memcpya.o(.text)
    __aeabi_memcpy8                          0x080002e3   Thumb Code     0  memcpya.o(.text)
    __aeabi_memset                           0x08000307   Thumb Code    14  memseta.o(.text)
    __aeabi_memset4                          0x08000307   Thumb Code     0  memseta.o(.text)
    __aeabi_memset8                          0x08000307   Thumb Code     0  memseta.o(.text)
    __aeabi_memclr                           0x08000315   Thumb Code     4  memseta.o(.text)
    __aeabi_memclr4                          0x08000315   Thumb Code     0  memseta.o(.text)
    __aeabi_memclr8                          0x08000315   Thumb Code     0  memseta.o(.text)
    memset                                   0x08000319   Thumb Code    18  memseta.o(.text)
    __aeabi_llsl                             0x0800032b   Thumb Code    30  llshl.o(.text)
    _ll_shift_l                              0x0800032b   Thumb Code     0  llshl.o(.text)
    __aeabi_llsr                             0x08000349   Thumb Code    32  llushr.o(.text)
    _ll_ushift_r                             0x08000349   Thumb Code     0  llushr.o(.text)
    __scatterload                            0x08000369   Thumb Code    28  init.o(.text)
    __scatterload_rt2                        0x08000369   Thumb Code     0  init.o(.text)
    BusFault_Handler                         0x080004b5   Thumb Code     2  stm32f4xx_it.o(i.BusFault_Handler)
    DebugMon_Handler                         0x080004b7   Thumb Code     2  stm32f4xx_it.o(i.DebugMon_Handler)
    EXTI0_IRQHandler                         0x080004b9   Thumb Code   112  stm32f4xx_it.o(i.EXTI0_IRQHandler)
    EXTI1_IRQHandler                         0x08000541   Thumb Code     6  stm32f4xx_it.o(i.EXTI1_IRQHandler)
    Error_Handler                            0x08000547   Thumb Code     2  main.o(i.Error_Handler)
    HAL_ADC_ConfigChannel                    0x08000549   Thumb Code   316  stm32f4xx_hal_adc.o(i.HAL_ADC_ConfigChannel)
    HAL_ADC_Init                             0x08000695   Thumb Code    84  stm32f4xx_hal_adc.o(i.HAL_ADC_Init)
    HAL_ADC_MspInit                          0x080006e9   Thumb Code    30  adc.o(i.HAL_ADC_MspInit)
    HAL_CAN_Init                             0x08000711   Thumb Code   282  stm32f4xx_hal_can.o(i.HAL_CAN_Init)
    HAL_CAN_MspInit                          0x0800082d   Thumb Code    94  can.o(i.HAL_CAN_MspInit)
    HAL_DMA_Abort_IT                         0x08000899   Thumb Code    36  stm32f4xx_hal_dma.o(i.HAL_DMA_Abort_IT)
    HAL_Delay                                0x080008bd   Thumb Code    32  stm32f4xx_hal.o(i.HAL_Delay)
    HAL_GPIO_EXTI_Callback                   0x080008e1   Thumb Code     2  stm32f4xx_hal_gpio.o(i.HAL_GPIO_EXTI_Callback)
    HAL_GPIO_EXTI_IRQHandler                 0x080008e5   Thumb Code    18  stm32f4xx_hal_gpio.o(i.HAL_GPIO_EXTI_IRQHandler)
    HAL_GPIO_Init                            0x080008fd   Thumb Code   394  stm32f4xx_hal_gpio.o(i.HAL_GPIO_Init)
    HAL_GPIO_TogglePin                       0x08000ab5   Thumb Code    14  stm32f4xx_hal_gpio.o(i.HAL_GPIO_TogglePin)
    HAL_GPIO_WritePin                        0x08000ac3   Thumb Code    10  stm32f4xx_hal_gpio.o(i.HAL_GPIO_WritePin)
    HAL_GetTick                              0x08000acd   Thumb Code     6  stm32f4xx_hal.o(i.HAL_GetTick)
    HAL_IncTick                              0x08000ad9   Thumb Code    12  stm32f4xx_hal.o(i.HAL_IncTick)
    HAL_Init                                 0x08000ae9   Thumb Code    48  stm32f4xx_hal.o(i.HAL_Init)
    HAL_InitTick                             0x08000b1d   Thumb Code    54  stm32f4xx_hal.o(i.HAL_InitTick)
    HAL_MspInit                              0x08000b5d   Thumb Code    52  stm32f4xx_hal_msp.o(i.HAL_MspInit)
    HAL_NVIC_EnableIRQ                       0x08000b95   Thumb Code    26  stm32f4xx_hal_cortex.o(i.HAL_NVIC_EnableIRQ)
    HAL_NVIC_SetPriority                     0x08000bb1   Thumb Code    60  stm32f4xx_hal_cortex.o(i.HAL_NVIC_SetPriority)
    HAL_NVIC_SetPriorityGrouping             0x08000bf1   Thumb Code    26  stm32f4xx_hal_cortex.o(i.HAL_NVIC_SetPriorityGrouping)
    HAL_RCC_ClockConfig                      0x08000c15   Thumb Code   288  stm32f4xx_hal_rcc.o(i.HAL_RCC_ClockConfig)
    HAL_RCC_GetPCLK1Freq                     0x08000d49   Thumb Code    20  stm32f4xx_hal_rcc.o(i.HAL_RCC_GetPCLK1Freq)
    HAL_RCC_GetPCLK2Freq                     0x08000d69   Thumb Code    20  stm32f4xx_hal_rcc.o(i.HAL_RCC_GetPCLK2Freq)
    HAL_RCC_GetSysClockFreq                  0x08000d89   Thumb Code    88  stm32f4xx_hal_rcc.o(i.HAL_RCC_GetSysClockFreq)
    HAL_RCC_OscConfig                        0x08000ded   Thumb Code   834  stm32f4xx_hal_rcc.o(i.HAL_RCC_OscConfig)
    HAL_SPI_GetState                         0x08001149   Thumb Code     6  stm32f4xx_hal_spi.o(i.HAL_SPI_GetState)
    HAL_SPI_Init                             0x0800114f   Thumb Code   128  stm32f4xx_hal_spi.o(i.HAL_SPI_Init)
    HAL_SPI_MspInit                          0x080011d1   Thumb Code    92  spi.o(i.HAL_SPI_MspInit)
    HAL_SPI_Receive                          0x08001239   Thumb Code   336  stm32f4xx_hal_spi.o(i.HAL_SPI_Receive)
    HAL_SPI_Transmit                         0x08001389   Thumb Code   348  stm32f4xx_hal_spi.o(i.HAL_SPI_Transmit)
    HAL_SPI_TransmitReceive                  0x080014e5   Thumb Code   482  stm32f4xx_hal_spi.o(i.HAL_SPI_TransmitReceive)
    HAL_SYSTICK_Config                       0x080016c7   Thumb Code    40  stm32f4xx_hal_cortex.o(i.HAL_SYSTICK_Config)
    HAL_UART_ErrorCallback                   0x080016ef   Thumb Code     2  stm32f4xx_hal_uart.o(i.HAL_UART_ErrorCallback)
    HAL_UART_IRQHandler                      0x080016f1   Thumb Code   270  stm32f4xx_hal_uart.o(i.HAL_UART_IRQHandler)
    HAL_UART_Init                            0x08001805   Thumb Code    98  stm32f4xx_hal_uart.o(i.HAL_UART_Init)
    HAL_UART_MspInit                         0x08001869   Thumb Code   110  usart.o(i.HAL_UART_MspInit)
    HAL_UART_RxCpltCallback                  0x080018e5   Thumb Code     2  stm32f4xx_hal_uart.o(i.HAL_UART_RxCpltCallback)
    HAL_UART_TxCpltCallback                  0x080018e7   Thumb Code     2  stm32f4xx_hal_uart.o(i.HAL_UART_TxCpltCallback)
    HardFault_Handler                        0x080018e9   Thumb Code     2  stm32f4xx_it.o(i.HardFault_Handler)
    MX_ADC1_Init                             0x080018ed   Thumb Code    88  adc.o(i.MX_ADC1_Init)
    MX_CAN1_Init                             0x08001951   Thumb Code    60  can.o(i.MX_CAN1_Init)
    MX_FREERTOS_Init                         0x08001995   Thumb Code    30  freertos.o(i.MX_FREERTOS_Init)
    MX_GPIO_Init                             0x080019bd   Thumb Code   200  gpio.o(i.MX_GPIO_Init)
    MX_SPI1_Init                             0x08001a99   Thumb Code    62  spi.o(i.MX_SPI1_Init)
    MX_USART1_UART_Init                      0x08001ae1   Thumb Code    48  usart.o(i.MX_USART1_UART_Init)
    MemManage_Handler                        0x08001b19   Thumb Code     2  stm32f4xx_it.o(i.MemManage_Handler)
    NMI_Handler                              0x08001b1b   Thumb Code     2  stm32f4xx_it.o(i.NMI_Handler)
    StartDefaultTask                         0x08001c65   Thumb Code     8  freertos.o(i.StartDefaultTask)
    SysTick_Handler                          0x08001c6d   Thumb Code    24  stm32f4xx_it.o(i.SysTick_Handler)
    SystemClock_Config                       0x08001c85   Thumb Code   126  main.o(i.SystemClock_Config)
    SystemInit                               0x08001d0d   Thumb Code    22  system_stm32f4xx.o(i.SystemInit)
    USART1_IRQHandler                        0x08001f79   Thumb Code     6  stm32f4xx_it.o(i.USART1_IRQHandler)
    UsageFault_Handler                       0x08001f85   Thumb Code     2  stm32f4xx_it.o(i.UsageFault_Handler)
    __scatterload_copy                       0x08001fa7   Thumb Code    14  handlers.o(i.__scatterload_copy)
    __scatterload_null                       0x08001fb5   Thumb Code     2  handlers.o(i.__scatterload_null)
    __scatterload_zeroinit                   0x08001fb7   Thumb Code    14  handlers.o(i.__scatterload_zeroinit)
    bmi088_apply_config_file                 0x08001fc5   Thumb Code    28  bmi088.o(i.bmi088_apply_config_file)
    bmi088_configure_data_synchronization    0x08001fe5   Thumb Code   104  bmi088.o(i.bmi088_configure_data_synchronization)
    bmi088_get_synchronized_data             0x0800204d   Thumb Code   110  bmi088.o(i.bmi088_get_synchronized_data)
    bmi088_init                              0x080020bb   Thumb Code    24  bmi088.o(i.bmi088_init)
    bmi088_set_data_sync_int_config          0x080020d3   Thumb Code    54  bmi088.o(i.bmi088_set_data_sync_int_config)
    bmi08a_get_regs                          0x08002109   Thumb Code    54  bmi08a.o(i.bmi08a_get_regs)
    bmi08a_init                              0x0800213f   Thumb Code    80  bmi08a.o(i.bmi08a_init)
    bmi08a_set_int_config                    0x0800218f   Thumb Code   266  bmi08a.o(i.bmi08a_set_int_config)
    bmi08a_set_meas_conf                     0x08002299   Thumb Code   136  bmi08a.o(i.bmi08a_set_meas_conf)
    bmi08a_set_power_mode                    0x08002321   Thumb Code    92  bmi08a.o(i.bmi08a_set_power_mode)
    bmi08a_set_regs                          0x0800237d   Thumb Code    54  bmi08a.o(i.bmi08a_set_regs)
    bmi08a_soft_reset                        0x080023b3   Thumb Code    64  bmi08a.o(i.bmi08a_soft_reset)
    bmi08a_write_config_file                 0x080023f3   Thumb Code   278  bmi08a.o(i.bmi08a_write_config_file)
    bmi08a_write_feature_config              0x08002509   Thumb Code   112  bmi08a.o(i.bmi08a_write_feature_config)
    bmi08g_get_data                          0x08002579   Thumb Code    82  bmi08g.o(i.bmi08g_get_data)
    bmi08g_init                              0x080025cb   Thumb Code    50  bmi08g.o(i.bmi08g_init)
    bmi08g_set_int_config                    0x080025fd   Thumb Code    44  bmi08g.o(i.bmi08g_set_int_config)
    bmi08g_set_meas_conf                     0x08002629   Thumb Code   138  bmi08g.o(i.bmi08g_set_meas_conf)
    bmi08g_set_power_mode                    0x080026b3   Thumb Code    98  bmi08g.o(i.bmi08g_set_power_mode)
    free                                     0x08002715   Thumb Code    76  malloc.o(i.free)
    main                                     0x080027ed   Thumb Code   194  main.o(i.main)
    malloc                                   0x080028c5   Thumb Code    92  malloc.o(i.malloc)
    osDelay                                  0x08002979   Thumb Code    14  cmsis_os.o(i.osDelay)
    osKernelStart                            0x08002987   Thumb Code    10  cmsis_os.o(i.osKernelStart)
    osThreadCreate                           0x08002991   Thumb Code    84  cmsis_os.o(i.osThreadCreate)
    pvPortMalloc                             0x08002d29   Thumb Code   210  heap_4.o(i.pvPortMalloc)
    pxPortInitialiseStack                    0x08002e01   Thumb Code    40  port.o(i.pxPortInitialiseStack)
    stm32_spi_read                           0x08002fd1   Thumb Code    74  bmi088_stm32.o(i.stm32_spi_read)
    stm32_spi_write                          0x08003021   Thumb Code    94  bmi088_stm32.o(i.stm32_spi_write)
    uxListRemove                             0x08003085   Thumb Code    38  list.o(i.uxListRemove)
    vApplicationGetIdleTaskMemory            0x080030ad   Thumb Code    16  freertos.o(i.vApplicationGetIdleTaskMemory)
    vListInitialise                          0x080030c1   Thumb Code    22  list.o(i.vListInitialise)
    vListInitialiseItem                      0x080030d7   Thumb Code     6  list.o(i.vListInitialiseItem)
    vListInsert                              0x080030dd   Thumb Code    48  list.o(i.vListInsert)
    vListInsertEnd                           0x0800310d   Thumb Code    24  list.o(i.vListInsertEnd)
    vPortEnterCritical                       0x08003125   Thumb Code    54  port.o(i.vPortEnterCritical)
    vPortExitCritical                        0x08003165   Thumb Code    34  port.o(i.vPortExitCritical)
    vPortFree                                0x0800318d   Thumb Code    88  heap_4.o(i.vPortFree)
    vPortSetupTimerInterrupt                 0x080031e9   Thumb Code    32  port.o(i.vPortSetupTimerInterrupt)
    vTaskDelay                               0x0800320d   Thumb Code    66  tasks.o(i.vTaskDelay)
    vTaskStartScheduler                      0x08003259   Thumb Code    90  tasks.o(i.vTaskStartScheduler)
    vTaskSuspendAll                          0x080032c5   Thumb Code    10  tasks.o(i.vTaskSuspendAll)
    vTaskSwitchContext                       0x080032d5   Thumb Code    82  tasks.o(i.vTaskSwitchContext)
    xPortStartScheduler                      0x08003331   Thumb Code   222  port.o(i.xPortStartScheduler)
    xPortSysTickHandler                      0x08003425   Thumb Code    38  port.o(i.xPortSysTickHandler)
    xTaskCreate                              0x08003451   Thumb Code    90  tasks.o(i.xTaskCreate)
    xTaskCreateStatic                        0x080034ab   Thumb Code    86  tasks.o(i.xTaskCreateStatic)
    xTaskGetSchedulerState                   0x08003501   Thumb Code    22  tasks.o(i.xTaskGetSchedulerState)
    xTaskIncrementTick                       0x0800351d   Thumb Code   192  tasks.o(i.xTaskIncrementTick)
    xTaskResumeAll                           0x080035e5   Thumb Code   182  tasks.o(i.xTaskResumeAll)
    AHBPrescTable                            0x080036c4   Data          16  system_stm32f4xx.o(.constdata)
    APBPrescTable                            0x080036d4   Data           8  system_stm32f4xx.o(.constdata)
    bmi08x_config_file                       0x080036dc   Data        6144  bmi08a.o(.constdata)
    Region$$Table$$Base                      0x08004ee8   Number         0  anon$$obj.o(Region$$Table)
    Region$$Table$$Limit                     0x08004f08   Number         0  anon$$obj.o(Region$$Table)
    sync_cfg                                 0x20000000   Data           1  main.o(.data)
    rslt                                     0x20000001   Data           1  main.o(.data)
    init_flag                                0x20000004   Data           4  main.o(.data)
    dev                                      0x20000008   Data          48  main.o(.data)
    user_accel_bmi088                        0x20000038   Data           6  main.o(.data)
    user_gyro_bmi088                         0x2000003e   Data           6  main.o(.data)
    defaultTaskHandle                        0x20000044   Data           4  freertos.o(.data)
    count                                    0x20000048   Data           4  stm32f4xx_it.o(.data)
    uwTickFreq                               0x2000004c   Data           1  stm32f4xx_hal.o(.data)
    uwTickPrio                               0x20000050   Data           4  stm32f4xx_hal.o(.data)
    uwTick                                   0x20000054   Data           4  stm32f4xx_hal.o(.data)
    SystemCoreClock                          0x20000058   Data           4  system_stm32f4xx.o(.data)
    pxCurrentTCB                             0x2000005c   Data           4  tasks.o(.data)
    __microlib_freelist                      0x200000bc   Data           4  mvars.o(.data)
    __microlib_freelist_initialised          0x200000c0   Data           4  mvars.o(.data)
    int_config                               0x200000c4   Data          12  main.o(.bss)
    hadc1                                    0x200000d0   Data          72  adc.o(.bss)
    hcan1                                    0x20000118   Data          40  can.o(.bss)
    hspi1                                    0x20000394   Data          88  spi.o(.bss)
    huart1                                   0x200003ec   Data          64  usart.o(.bss)
    __heap_base                              0x20004120   Data           0  startup_stm32f405xx.o(HEAP)
    __heap_limit                             0x20004320   Data           0  startup_stm32f405xx.o(HEAP)
    __initial_sp                             0x20004720   Data           0  startup_stm32f405xx.o(STACK)



==============================================================================

Memory Map of the image

  Image Entry point : 0x08000189

  Load Region LR_IROM1 (Base: 0x08000000, Size: 0x00004fcc, Max: 0x00100000, ABSOLUTE)

    Execution Region ER_IROM1 (Exec base: 0x08000000, Load base: 0x08000000, Size: 0x00004f08, Max: 0x00100000, ABSOLUTE)

    Exec Addr    Load Addr    Size         Type   Attr      Idx    E Section Name        Object

    0x08000000   0x08000000   0x00000188   Data   RO         2942    RESET               startup_stm32f405xx.o
    0x08000188   0x08000188   0x00000000   Code   RO         4556  * .ARM.Collect$$$$00000000  mc_w.l(entry.o)
    0x08000188   0x08000188   0x00000004   Code   RO         4597    .ARM.Collect$$$$00000001  mc_w.l(entry2.o)
    0x0800018c   0x0800018c   0x00000004   Code   RO         4600    .ARM.Collect$$$$00000004  mc_w.l(entry5.o)
    0x08000190   0x08000190   0x00000000   Code   RO         4602    .ARM.Collect$$$$00000008  mc_w.l(entry7b.o)
    0x08000190   0x08000190   0x00000000   Code   RO         4604    .ARM.Collect$$$$0000000A  mc_w.l(entry8b.o)
    0x08000190   0x08000190   0x00000008   Code   RO         4605    .ARM.Collect$$$$0000000B  mc_w.l(entry9a.o)
    0x08000198   0x08000198   0x00000000   Code   RO         4607    .ARM.Collect$$$$0000000D  mc_w.l(entry10a.o)
    0x08000198   0x08000198   0x00000000   Code   RO         4609    .ARM.Collect$$$$0000000F  mc_w.l(entry11a.o)
    0x08000198   0x08000198   0x00000004   Code   RO         4598    .ARM.Collect$$$$00002712  mc_w.l(entry2.o)
    0x0800019c   0x0800019c   0x000000be   Code   RO         4137    .emb_text           port.o
    0x0800025a   0x0800025a   0x00000002   PAD
    0x0800025c   0x0800025c   0x00000024   Code   RO         2943    .text               startup_stm32f405xx.o
    0x08000280   0x08000280   0x00000062   Code   RO         4559    .text               mc_w.l(uldiv.o)
    0x080002e2   0x080002e2   0x00000024   Code   RO         4561    .text               mc_w.l(memcpya.o)
    0x08000306   0x08000306   0x00000024   Code   RO         4565    .text               mc_w.l(memseta.o)
    0x0800032a   0x0800032a   0x0000001e   Code   RO         4611    .text               mc_w.l(llshl.o)
    0x08000348   0x08000348   0x00000020   Code   RO         4613    .text               mc_w.l(llushr.o)
    0x08000368   0x08000368   0x00000024   Code   RO         4617    .text               mc_w.l(init.o)
    0x0800038c   0x0800038c   0x00000128   Code   RO          583    i.ADC_Init          stm32f4xx_hal_adc.o
    0x080004b4   0x080004b4   0x00000002   Code   RO          471    i.BusFault_Handler  stm32f4xx_it.o
    0x080004b6   0x080004b6   0x00000002   Code   RO          472    i.DebugMon_Handler  stm32f4xx_it.o
    0x080004b8   0x080004b8   0x00000088   Code   RO          473    i.EXTI0_IRQHandler  stm32f4xx_it.o
    0x08000540   0x08000540   0x00000006   Code   RO          474    i.EXTI1_IRQHandler  stm32f4xx_it.o
    0x08000546   0x08000546   0x00000002   Code   RO            4    i.Error_Handler     main.o
    0x08000548   0x08000548   0x0000014c   Code   RO          585    i.HAL_ADC_ConfigChannel  stm32f4xx_hal_adc.o
    0x08000694   0x08000694   0x00000054   Code   RO          594    i.HAL_ADC_Init      stm32f4xx_hal_adc.o
    0x080006e8   0x080006e8   0x00000028   Code   RO          254    i.HAL_ADC_MspInit   adc.o
    0x08000710   0x08000710   0x0000011a   Code   RO         2001    i.HAL_CAN_Init      stm32f4xx_hal_can.o
    0x0800082a   0x0800082a   0x00000002   PAD
    0x0800082c   0x0800082c   0x0000006c   Code   RO          296    i.HAL_CAN_MspInit   can.o
    0x08000898   0x08000898   0x00000024   Code   RO         1318    i.HAL_DMA_Abort_IT  stm32f4xx_hal_dma.o
    0x080008bc   0x080008bc   0x00000024   Code   RO         1736    i.HAL_Delay         stm32f4xx_hal.o
    0x080008e0   0x080008e0   0x00000002   Code   RO         1208    i.HAL_GPIO_EXTI_Callback  stm32f4xx_hal_gpio.o
    0x080008e2   0x080008e2   0x00000002   PAD
    0x080008e4   0x080008e4   0x00000018   Code   RO         1209    i.HAL_GPIO_EXTI_IRQHandler  stm32f4xx_hal_gpio.o
    0x080008fc   0x080008fc   0x000001b8   Code   RO         1210    i.HAL_GPIO_Init     stm32f4xx_hal_gpio.o
    0x08000ab4   0x08000ab4   0x0000000e   Code   RO         1213    i.HAL_GPIO_TogglePin  stm32f4xx_hal_gpio.o
    0x08000ac2   0x08000ac2   0x0000000a   Code   RO         1214    i.HAL_GPIO_WritePin  stm32f4xx_hal_gpio.o
    0x08000acc   0x08000acc   0x0000000c   Code   RO         1742    i.HAL_GetTick       stm32f4xx_hal.o
    0x08000ad8   0x08000ad8   0x00000010   Code   RO         1748    i.HAL_IncTick       stm32f4xx_hal.o
    0x08000ae8   0x08000ae8   0x00000034   Code   RO         1749    i.HAL_Init          stm32f4xx_hal.o
    0x08000b1c   0x08000b1c   0x00000040   Code   RO         1750    i.HAL_InitTick      stm32f4xx_hal.o
    0x08000b5c   0x08000b5c   0x00000038   Code   RO          556    i.HAL_MspInit       stm32f4xx_hal_msp.o
    0x08000b94   0x08000b94   0x0000001a   Code   RO         1599    i.HAL_NVIC_EnableIRQ  stm32f4xx_hal_cortex.o
    0x08000bae   0x08000bae   0x00000002   PAD
    0x08000bb0   0x08000bb0   0x00000040   Code   RO         1605    i.HAL_NVIC_SetPriority  stm32f4xx_hal_cortex.o
    0x08000bf0   0x08000bf0   0x00000024   Code   RO         1606    i.HAL_NVIC_SetPriorityGrouping  stm32f4xx_hal_cortex.o
    0x08000c14   0x08000c14   0x00000134   Code   RO          856    i.HAL_RCC_ClockConfig  stm32f4xx_hal_rcc.o
    0x08000d48   0x08000d48   0x00000020   Code   RO          863    i.HAL_RCC_GetPCLK1Freq  stm32f4xx_hal_rcc.o
    0x08000d68   0x08000d68   0x00000020   Code   RO          864    i.HAL_RCC_GetPCLK2Freq  stm32f4xx_hal_rcc.o
    0x08000d88   0x08000d88   0x00000064   Code   RO          865    i.HAL_RCC_GetSysClockFreq  stm32f4xx_hal_rcc.o
    0x08000dec   0x08000dec   0x0000035c   Code   RO          868    i.HAL_RCC_OscConfig  stm32f4xx_hal_rcc.o
    0x08001148   0x08001148   0x00000006   Code   RO         2230    i.HAL_SPI_GetState  stm32f4xx_hal_spi.o
    0x0800114e   0x0800114e   0x00000080   Code   RO         2232    i.HAL_SPI_Init      stm32f4xx_hal_spi.o
    0x080011ce   0x080011ce   0x00000002   PAD
    0x080011d0   0x080011d0   0x00000068   Code   RO          388    i.HAL_SPI_MspInit   spi.o
    0x08001238   0x08001238   0x00000150   Code   RO         2235    i.HAL_SPI_Receive   stm32f4xx_hal_spi.o
    0x08001388   0x08001388   0x0000015c   Code   RO         2240    i.HAL_SPI_Transmit  stm32f4xx_hal_spi.o
    0x080014e4   0x080014e4   0x000001e2   Code   RO         2241    i.HAL_SPI_TransmitReceive  stm32f4xx_hal_spi.o
    0x080016c6   0x080016c6   0x00000028   Code   RO         1610    i.HAL_SYSTICK_Config  stm32f4xx_hal_cortex.o
    0x080016ee   0x080016ee   0x00000002   Code   RO         2600    i.HAL_UART_ErrorCallback  stm32f4xx_hal_uart.o
    0x080016f0   0x080016f0   0x00000114   Code   RO         2603    i.HAL_UART_IRQHandler  stm32f4xx_hal_uart.o
    0x08001804   0x08001804   0x00000062   Code   RO         2604    i.HAL_UART_Init     stm32f4xx_hal_uart.o
    0x08001866   0x08001866   0x00000002   PAD
    0x08001868   0x08001868   0x0000007c   Code   RO          430    i.HAL_UART_MspInit  usart.o
    0x080018e4   0x080018e4   0x00000002   Code   RO         2610    i.HAL_UART_RxCpltCallback  stm32f4xx_hal_uart.o
    0x080018e6   0x080018e6   0x00000002   Code   RO         2615    i.HAL_UART_TxCpltCallback  stm32f4xx_hal_uart.o
    0x080018e8   0x080018e8   0x00000002   Code   RO          475    i.HardFault_Handler  stm32f4xx_it.o
    0x080018ea   0x080018ea   0x00000002   PAD
    0x080018ec   0x080018ec   0x00000064   Code   RO          255    i.MX_ADC1_Init      adc.o
    0x08001950   0x08001950   0x00000044   Code   RO          297    i.MX_CAN1_Init      can.o
    0x08001994   0x08001994   0x00000028   Code   RO          337    i.MX_FREERTOS_Init  freertos.o
    0x080019bc   0x080019bc   0x000000dc   Code   RO          229    i.MX_GPIO_Init      gpio.o
    0x08001a98   0x08001a98   0x00000048   Code   RO          389    i.MX_SPI1_Init      spi.o
    0x08001ae0   0x08001ae0   0x00000038   Code   RO          431    i.MX_USART1_UART_Init  usart.o
    0x08001b18   0x08001b18   0x00000002   Code   RO          476    i.MemManage_Handler  stm32f4xx_it.o
    0x08001b1a   0x08001b1a   0x00000002   Code   RO          477    i.NMI_Handler       stm32f4xx_it.o
    0x08001b1c   0x08001b1c   0x0000005c   Code   RO         2269    i.SPI_EndRxTransaction  stm32f4xx_hal_spi.o
    0x08001b78   0x08001b78   0x00000058   Code   RO         2270    i.SPI_EndRxTxTransaction  stm32f4xx_hal_spi.o
    0x08001bd0   0x08001bd0   0x00000094   Code   RO         2275    i.SPI_WaitFlagStateUntilTimeout  stm32f4xx_hal_spi.o
    0x08001c64   0x08001c64   0x00000008   Code   RO          338    i.StartDefaultTask  freertos.o
    0x08001c6c   0x08001c6c   0x00000018   Code   RO          478    i.SysTick_Handler   stm32f4xx_it.o
    0x08001c84   0x08001c84   0x00000088   Code   RO            5    i.SystemClock_Config  main.o
    0x08001d0c   0x08001d0c   0x0000001c   Code   RO         2906    i.SystemInit        system_stm32f4xx.o
    0x08001d28   0x08001d28   0x00000010   Code   RO         2617    i.UART_DMAAbortOnError  stm32f4xx_hal_uart.o
    0x08001d38   0x08001d38   0x0000001c   Code   RO         2627    i.UART_EndRxTransfer  stm32f4xx_hal_uart.o
    0x08001d54   0x08001d54   0x00000096   Code   RO         2629    i.UART_Receive_IT   stm32f4xx_hal_uart.o
    0x08001dea   0x08001dea   0x00000002   PAD
    0x08001dec   0x08001dec   0x00000128   Code   RO         2630    i.UART_SetConfig    stm32f4xx_hal_uart.o
    0x08001f14   0x08001f14   0x00000062   Code   RO         2631    i.UART_Transmit_IT  stm32f4xx_hal_uart.o
    0x08001f76   0x08001f76   0x00000002   PAD
    0x08001f78   0x08001f78   0x0000000c   Code   RO          479    i.USART1_IRQHandler  stm32f4xx_it.o
    0x08001f84   0x08001f84   0x00000002   Code   RO          480    i.UsageFault_Handler  stm32f4xx_it.o
    0x08001f86   0x08001f86   0x00000020   Code   RO         1612    i.__NVIC_SetPriority  stm32f4xx_hal_cortex.o
    0x08001fa6   0x08001fa6   0x0000000e   Code   RO         4621    i.__scatterload_copy  mc_w.l(handlers.o)
    0x08001fb4   0x08001fb4   0x00000002   Code   RO         4622    i.__scatterload_null  mc_w.l(handlers.o)
    0x08001fb6   0x08001fb6   0x0000000e   Code   RO         4623    i.__scatterload_zeroinit  mc_w.l(handlers.o)
    0x08001fc4   0x08001fc4   0x00000020   Code   RO         4468    i.bmi088_apply_config_file  bmi088.o
    0x08001fe4   0x08001fe4   0x00000068   Code   RO         4470    i.bmi088_configure_data_synchronization  bmi088.o
    0x0800204c   0x0800204c   0x0000006e   Code   RO         4471    i.bmi088_get_synchronized_data  bmi088.o
    0x080020ba   0x080020ba   0x00000018   Code   RO         4472    i.bmi088_init       bmi088.o
    0x080020d2   0x080020d2   0x00000036   Code   RO         4473    i.bmi088_set_data_sync_int_config  bmi088.o
    0x08002108   0x08002108   0x00000036   Code   RO         4221    i.bmi08a_get_regs   bmi08a.o
    0x0800213e   0x0800213e   0x00000050   Code   RO         4225    i.bmi08a_init       bmi08a.o
    0x0800218e   0x0800218e   0x0000010a   Code   RO         4227    i.bmi08a_set_int_config  bmi08a.o
    0x08002298   0x08002298   0x00000088   Code   RO         4228    i.bmi08a_set_meas_conf  bmi08a.o
    0x08002320   0x08002320   0x0000005c   Code   RO         4229    i.bmi08a_set_power_mode  bmi08a.o
    0x0800237c   0x0800237c   0x00000036   Code   RO         4230    i.bmi08a_set_regs   bmi08a.o
    0x080023b2   0x080023b2   0x00000040   Code   RO         4231    i.bmi08a_soft_reset  bmi08a.o
    0x080023f2   0x080023f2   0x00000116   Code   RO         4232    i.bmi08a_write_config_file  bmi08a.o
    0x08002508   0x08002508   0x00000070   Code   RO         4233    i.bmi08a_write_feature_config  bmi08a.o
    0x08002578   0x08002578   0x00000052   Code   RO         4364    i.bmi08g_get_data   bmi08g.o
    0x080025ca   0x080025ca   0x00000032   Code   RO         4368    i.bmi08g_init       bmi08g.o
    0x080025fc   0x080025fc   0x0000002c   Code   RO         4370    i.bmi08g_set_int_config  bmi08g.o
    0x08002628   0x08002628   0x0000008a   Code   RO         4371    i.bmi08g_set_meas_conf  bmi08g.o
    0x080026b2   0x080026b2   0x00000062   Code   RO         4372    i.bmi08g_set_power_mode  bmi08g.o
    0x08002714   0x08002714   0x00000050   Code   RO         4569    i.free              mc_w.l(malloc.o)
    0x08002764   0x08002764   0x0000005e   Code   RO         4234    i.get_regs          bmi08a.o
    0x080027c2   0x080027c2   0x00000028   Code   RO         4375    i.get_regs          bmi08g.o
    0x080027ea   0x080027ea   0x00000002   PAD
    0x080027ec   0x080027ec   0x000000cc   Code   RO            6    i.main              main.o
    0x080028b8   0x080028b8   0x0000000c   Code   RO         3709    i.makeFreeRtosPriority  cmsis_os.o
    0x080028c4   0x080028c4   0x0000006c   Code   RO         4570    i.malloc            mc_w.l(malloc.o)
    0x08002930   0x08002930   0x00000018   Code   RO         4235    i.null_ptr_check    bmi08a.o
    0x08002948   0x08002948   0x00000018   Code   RO         4376    i.null_ptr_check    bmi08g.o
    0x08002960   0x08002960   0x00000018   Code   RO         4474    i.null_ptr_check    bmi088.o
    0x08002978   0x08002978   0x0000000e   Code   RO         3711    i.osDelay           cmsis_os.o
    0x08002986   0x08002986   0x0000000a   Code   RO         3714    i.osKernelStart     cmsis_os.o
    0x08002990   0x08002990   0x00000054   Code   RO         3748    i.osThreadCreate    cmsis_os.o
    0x080029e4   0x080029e4   0x00000070   Code   RO         3406    i.prvAddCurrentTaskToDelayedList  tasks.o
    0x08002a54   0x08002a54   0x000000d0   Code   RO         3407    i.prvAddNewTaskToReadyList  tasks.o
    0x08002b24   0x08002b24   0x00000034   Code   RO         3408    i.prvDeleteTCB      tasks.o
    0x08002b58   0x08002b58   0x0000004c   Code   RO         4076    i.prvHeapInit       heap_4.o
    0x08002ba4   0x08002ba4   0x00000060   Code   RO         3409    i.prvIdleTask       tasks.o
    0x08002c04   0x08002c04   0x0000008e   Code   RO         3410    i.prvInitialiseNewTask  tasks.o
    0x08002c92   0x08002c92   0x00000002   PAD
    0x08002c94   0x08002c94   0x0000004c   Code   RO         4077    i.prvInsertBlockIntoFreeList  heap_4.o
    0x08002ce0   0x08002ce0   0x00000020   Code   RO         3411    i.prvResetNextTaskUnblockTime  tasks.o
    0x08002d00   0x08002d00   0x00000028   Code   RO         4138    i.prvTaskExitError  port.o
    0x08002d28   0x08002d28   0x000000d8   Code   RO         4078    i.pvPortMalloc      heap_4.o
    0x08002e00   0x08002e00   0x0000002c   Code   RO         4139    i.pxPortInitialiseStack  port.o
    0x08002e2c   0x08002e2c   0x000000d0   Code   RO         4377    i.set_gyro_data_ready_int  bmi08g.o
    0x08002efc   0x08002efc   0x00000084   Code   RO         4236    i.set_int_pin_config  bmi08a.o
    0x08002f80   0x08002f80   0x00000028   Code   RO         4237    i.set_regs          bmi08a.o
    0x08002fa8   0x08002fa8   0x00000028   Code   RO         4378    i.set_regs          bmi08g.o
    0x08002fd0   0x08002fd0   0x00000050   Code   RO         4528    i.stm32_spi_read    bmi088_stm32.o
    0x08003020   0x08003020   0x00000064   Code   RO         4529    i.stm32_spi_write   bmi088_stm32.o
    0x08003084   0x08003084   0x00000026   Code   RO         3051    i.uxListRemove      list.o
    0x080030aa   0x080030aa   0x00000002   PAD
    0x080030ac   0x080030ac   0x00000014   Code   RO          339    i.vApplicationGetIdleTaskMemory  freertos.o
    0x080030c0   0x080030c0   0x00000016   Code   RO         3052    i.vListInitialise   list.o
    0x080030d6   0x080030d6   0x00000006   Code   RO         3053    i.vListInitialiseItem  list.o
    0x080030dc   0x080030dc   0x00000030   Code   RO         3054    i.vListInsert       list.o
    0x0800310c   0x0800310c   0x00000018   Code   RO         3055    i.vListInsertEnd    list.o
    0x08003124   0x08003124   0x00000040   Code   RO         4141    i.vPortEnterCritical  port.o
    0x08003164   0x08003164   0x00000028   Code   RO         4142    i.vPortExitCritical  port.o
    0x0800318c   0x0800318c   0x0000005c   Code   RO         4079    i.vPortFree         heap_4.o
    0x080031e8   0x080031e8   0x00000024   Code   RO         4143    i.vPortSetupTimerInterrupt  port.o
    0x0800320c   0x0800320c   0x0000004c   Code   RO         3419    i.vTaskDelay        tasks.o
    0x08003258   0x08003258   0x0000006c   Code   RO         3432    i.vTaskStartScheduler  tasks.o
    0x080032c4   0x080032c4   0x00000010   Code   RO         3434    i.vTaskSuspendAll   tasks.o
    0x080032d4   0x080032d4   0x0000005c   Code   RO         3435    i.vTaskSwitchContext  tasks.o
    0x08003330   0x08003330   0x000000f4   Code   RO         4145    i.xPortStartScheduler  port.o
    0x08003424   0x08003424   0x0000002c   Code   RO         4146    i.xPortSysTickHandler  port.o
    0x08003450   0x08003450   0x0000005a   Code   RO         3437    i.xTaskCreate       tasks.o
    0x080034aa   0x080034aa   0x00000056   Code   RO         3438    i.xTaskCreateStatic  tasks.o
    0x08003500   0x08003500   0x0000001c   Code   RO         3442    i.xTaskGetSchedulerState  tasks.o
    0x0800351c   0x0800351c   0x000000c8   Code   RO         3445    i.xTaskIncrementTick  tasks.o
    0x080035e4   0x080035e4   0x000000c4   Code   RO         3451    i.xTaskResumeAll    tasks.o
    0x080036a8   0x080036a8   0x0000001c   Data   RO          341    .constdata          freertos.o
    0x080036c4   0x080036c4   0x00000010   Data   RO         2907    .constdata          system_stm32f4xx.o
    0x080036d4   0x080036d4   0x00000008   Data   RO         2908    .constdata          system_stm32f4xx.o
    0x080036dc   0x080036dc   0x00001800   Data   RO         4239    .constdata          bmi08a.o
    0x08004edc   0x08004edc   0x0000000c   Data   RO          342    .conststring        freertos.o
    0x08004ee8   0x08004ee8   0x00000020   Data   RO         4619    Region$$Table       anon$$obj.o


    Execution Region RW_IRAM1 (Exec base: 0x20000000, Load base: 0x08004f08, Size: 0x00004720, Max: 0x00020000, ABSOLUTE)

    Exec Addr    Load Addr    Size         Type   Attr      Idx    E Section Name        Object

    0x20000000   0x08004f08   0x00000038   Data   RW            8    .data               main.o
    0x20000038   0x08004f40   0x00000006   Data   RW           11    .data               main.o
    0x2000003e   0x08004f46   0x00000006   Data   RW           12    .data               main.o
    0x20000044   0x08004f4c   0x00000004   Data   RW          343    .data               freertos.o
    0x20000048   0x08004f50   0x00000004   Data   RW          481    .data               stm32f4xx_it.o
    0x2000004c   0x08004f54   0x0000000c   Data   RW         1756    .data               stm32f4xx_hal.o
    0x20000058   0x08004f60   0x00000004   Data   RW         2909    .data               system_stm32f4xx.o
    0x2000005c   0x08004f64   0x0000003c   Data   RW         3454    .data               tasks.o
    0x20000098   0x08004fa0   0x00000018   Data   RW         4084    .data               heap_4.o
    0x200000b0   0x08004fb8   0x0000000c   Data   RW         4147    .data               port.o
    0x200000bc   0x08004fc4   0x00000004   Data   RW         4615    .data               mc_w.l(mvars.o)
    0x200000c0   0x08004fc8   0x00000004   Data   RW         4616    .data               mc_w.l(mvars.o)
    0x200000c4        -       0x0000000c   Zero   RW            7    .bss                main.o
    0x200000d0        -       0x00000048   Zero   RW          256    .bss                adc.o
    0x20000118        -       0x00000028   Zero   RW          298    .bss                can.o
    0x20000140        -       0x00000254   Zero   RW          340    .bss                freertos.o
    0x20000394        -       0x00000058   Zero   RW          390    .bss                spi.o
    0x200003ec        -       0x00000040   Zero   RW          432    .bss                usart.o
    0x2000042c        -       0x000000f0   Zero   RW         3453    .bss                tasks.o
    0x2000051c        -       0x00003c00   Zero   RW         4083    .bss                heap_4.o
    0x2000411c   0x08004fcc   0x00000004   PAD
    0x20004120        -       0x00000200   Zero   RW         2941    HEAP                startup_stm32f405xx.o
    0x20004320        -       0x00000400   Zero   RW         2940    STACK               startup_stm32f405xx.o


==============================================================================

Image component sizes


      Code (inc. data)   RO Data    RW Data    ZI Data      Debug   Object Name

       140         22          0          0         72       1657   adc.o
       348          4          0          0          0       4819   bmi088.o
       180         12          0          0          0       2075   bmi088_stm32.o
      1426          0       6144          0          0      13605   bmi08a.o
       724          0          0          0          0       7723   bmi08g.o
       176         22          0          0         40       1777   can.o
       120          0          0          0          0      22745   cmsis_os.o
         0          0          0          0          0      18300   event_groups.o
        68         14         40          4        596       2558   freertos.o
       220         20          0          0          0       1031   gpio.o
       460         24          0         24      15360       7555   heap_4.o
       138          0          0          0          0       3750   list.o
       342         20          0         68         12     684876   main.o
       702         72          0         12          0      11432   port.o
       176         22          0          0         88       1777   spi.o
        36          8        392          0       1536        828   startup_stm32f405xx.o
       180         28          0         12          0       9657   stm32f4xx_hal.o
       712         28          0          0          0       3011   stm32f4xx_hal_adc.o
       282          0          0          0          0       1403   stm32f4xx_hal_can.o
       198         14          0          0          0      34155   stm32f4xx_hal_cortex.o
        36          0          0          0          0       1275   stm32f4xx_hal_dma.o
       490         52          0          0          0       4385   stm32f4xx_hal_gpio.o
        56          4          0          0          0        902   stm32f4xx_hal_msp.o
      1332         82          0          0          0       5420   stm32f4xx_hal_rcc.o
      1628          8          0          0          0       9169   stm32f4xx_hal_spi.o
       968         16          0          0          0       7811   stm32f4xx_hal_uart.o
       190         30          0          4          0       5309   stm32f4xx_it.o
         0          0          0          0          0        416   stream_buffer.o
        28          6         24          4          0       1227   system_stm32f4xx.o
      1534        116          0         60        240      17755   tasks.o
       180         22          0          0         64       1802   usart.o

    ----------------------------------------------------------------------
     13094        646       6632        188      18012     890205   Object Totals
         0          0         32          0          0          0   (incl. Generated)
        24          0          0          0          4          0   (incl. Padding)

    ----------------------------------------------------------------------

      Code (inc. data)   RO Data    RW Data    ZI Data      Debug   Library Member Name

         0          0          0          0          0          0   entry.o
         0          0          0          0          0          0   entry10a.o
         0          0          0          0          0          0   entry11a.o
         8          4          0          0          0          0   entry2.o
         4          0          0          0          0          0   entry5.o
         0          0          0          0          0          0   entry7b.o
         0          0          0          0          0          0   entry8b.o
         8          4          0          0          0          0   entry9a.o
        30          0          0          0          0          0   handlers.o
        36          8          0          0          0         68   init.o
        30          0          0          0          0         68   llshl.o
        32          0          0          0          0         68   llushr.o
       188         20          0          0          0        160   malloc.o
        36          0          0          0          0         68   memcpya.o
        36          0          0          0          0        108   memseta.o
         0          0          0          8          0          0   mvars.o
        98          0          0          0          0         92   uldiv.o

    ----------------------------------------------------------------------
       506         36          0          8          0        632   Library Totals
         0          0          0          0          0          0   (incl. Padding)

    ----------------------------------------------------------------------

      Code (inc. data)   RO Data    RW Data    ZI Data      Debug   Library Name

       506         36          0          8          0        632   mc_w.l

    ----------------------------------------------------------------------
       506         36          0          8          0        632   Library Totals

    ----------------------------------------------------------------------

==============================================================================


      Code (inc. data)   RO Data    RW Data    ZI Data      Debug   

     13600        682       6632        196      18012     877981   Grand Totals
     13600        682       6632        196      18012     877981   ELF Image Totals
     13600        682       6632        196          0          0   ROM Totals

==============================================================================

    Total RO  Size (Code + RO Data)                20232 (  19.76kB)
    Total RW  Size (RW Data + ZI Data)             18208 (  17.78kB)
    Total ROM Size (Code + RO Data + RW Data)      20428 (  19.95kB)

==============================================================================

